{"abi":[{"type":"constructor","inputs":[],"stateMutability":"nonpayable"},{"type":"function","name":"approve","inputs":[{"name":"to","type":"address","internalType":"address"},{"name":"tokenId","type":"uint256","internalType":"uint256"}],"outputs":[],"stateMutability":"nonpayable"},{"type":"function","name":"balanceOf","inputs":[{"name":"owner","type":"address","internalType":"address"}],"outputs":[{"name":"","type":"uint256","internalType":"uint256"}],"stateMutability":"view"},{"type":"function","name":"getApproved","inputs":[{"name":"tokenId","type":"uint256","internalType":"uint256"}],"outputs":[{"name":"","type":"address","internalType":"address"}],"stateMutability":"view"},{"type":"function","name":"getMetadata","inputs":[{"name":"agentId","type":"uint256","internalType":"uint256"},{"name":"key","type":"string","internalType":"string"}],"outputs":[{"name":"","type":"bytes","internalType":"bytes"}],"stateMutability":"view"},{"type":"function","name":"isApprovedForAll","inputs":[{"name":"owner","type":"address","internalType":"address"},{"name":"operator","type":"address","internalType":"address"}],"outputs":[{"name":"","type":"bool","internalType":"bool"}],"stateMutability":"view"},{"type":"function","name":"name","inputs":[],"outputs":[{"name":"","type":"string","internalType":"string"}],"stateMutability":"view"},{"type":"function","name":"owner","inputs":[],"outputs":[{"name":"","type":"address","internalType":"address"}],"stateMutability":"view"},{"type":"function","name":"ownerOf","inputs":[{"name":"tokenId","type":"uint256","internalType":"uint256"}],"outputs":[{"name":"","type":"address","internalType":"address"}],"stateMutability":"view"},{"type":"function","name":"register","inputs":[],"outputs":[{"name":"agentId","type":"uint256","internalType":"uint256"}],"stateMutability":"nonpayable"},{"type":"function","name":"register","inputs":[{"name":"tokenUri","type":"string","internalType":"string"},{"name":"metadata","type":"tuple[]","internalType":"struct IdentityRegistry.MetadataEntry[]","components":[{"name":"key","type":"string","internalType":"string"},{"name":"value","type":"bytes","internalType":"bytes"}]}],"outputs":[{"name":"agentId","type":"uint256","internalType":"uint256"}],"stateMutability":"nonpayable"},{"type":"function","name":"register","inputs":[{"name":"tokenUri","type":"string","internalType":"string"}],"outputs":[{"name":"agentId","type":"uint256","internalType":"uint256"}],"stateMutability":"nonpayable"},{"type":"function","name":"renounceOwnership","inputs":[],"outputs":[],"stateMutability":"nonpayable"},{"type":"function","name":"safeTransferFrom","inputs":[{"name":"from","type":"address","internalType":"address"},{"name":"to","type":"address","internalType":"address"},{"name":"tokenId","type":"uint256","internalType":"uint256"}],"outputs":[],"stateMutability":"nonpayable"},{"type":"function","name":"safeTransferFrom","inputs":[{"name":"from","type":"address","internalType":"address"},{"name":"to","type":"address","internalType":"address"},{"name":"tokenId","type":"uint256","internalType":"uint256"},{"name":"data","type":"bytes","internalType":"bytes"}],"outputs":[],"stateMutability":"nonpayable"},{"type":"function","name":"setAgentUri","inputs":[{"name":"agentId","type":"uint256","internalType":"uint256"},{"name":"newUri","type":"string","internalType":"string"}],"outputs":[],"stateMutability":"nonpayable"},{"type":"function","name":"setApprovalForAll","inputs":[{"name":"operator","type":"address","internalType":"address"},{"name":"approved","type":"bool","internalType":"bool"}],"outputs":[],"stateMutability":"nonpayable"},{"type":"function","name":"setMetadata","inputs":[{"name":"agentId","type":"uint256","internalType":"uint256"},{"name":"key","type":"string","internalType":"string"},{"name":"value","type":"bytes","internalType":"bytes"}],"outputs":[],"stateMutability":"nonpayable"},{"type":"function","name":"supportsInterface","inputs":[{"name":"interfaceId","type":"bytes4","internalType":"bytes4"}],"outputs":[{"name":"","type":"bool","internalType":"bool"}],"stateMutability":"view"},{"type":"function","name":"symbol","inputs":[],"outputs":[{"name":"","type":"string","internalType":"string"}],"stateMutability":"view"},{"type":"function","name":"tokenURI","inputs":[{"name":"tokenId","type":"uint256","internalType":"uint256"}],"outputs":[{"name":"","type":"string","internalType":"string"}],"stateMutability":"view"},{"type":"function","name":"transferFrom","inputs":[{"name":"from","type":"address","internalType":"address"},{"name":"to","type":"address","internalType":"address"},{"name":"tokenId","type":"uint256","internalType":"uint256"}],"outputs":[],"stateMutability":"nonpayable"},{"type":"function","name":"transferOwnership","inputs":[{"name":"newOwner","type":"address","internalType":"address"}],"outputs":[],"stateMutability":"nonpayable"},{"type":"event","name":"Approval","inputs":[{"name":"owner","type":"address","indexed":true,"internalType":"address"},{"name":"approved","type":"address","indexed":true,"internalType":"address"},{"name":"tokenId","type":"uint256","indexed":true,"internalType":"uint256"}],"anonymous":false},{"type":"event","name":"ApprovalForAll","inputs":[{"name":"owner","type":"address","indexed":true,"internalType":"address"},{"name":"operator","type":"address","indexed":true,"internalType":"address"},{"name":"approved","type":"bool","indexed":false,"internalType":"bool"}],"anonymous":false},{"type":"event","name":"BatchMetadataUpdate","inputs":[{"name":"_fromTokenId","type":"uint256","indexed":false,"internalType":"uint256"},{"name":"_toTokenId","type":"uint256","indexed":false,"internalType":"uint256"}],"anonymous":false},{"type":"event","name":"MetadataSet","inputs":[{"name":"agentId","type":"uint256","indexed":true,"internalType":"uint256"},{"name":"indexedKey","type":"string","indexed":true,"internalType":"string"},{"name":"key","type":"string","indexed":false,"internalType":"string"},{"name":"value","type":"bytes","indexed":false,"internalType":"bytes"}],"anonymous":false},{"type":"event","name":"MetadataUpdate","inputs":[{"name":"_tokenId","type":"uint256","indexed":false,"internalType":"uint256"}],"anonymous":false},{"type":"event","name":"OwnershipTransferred","inputs":[{"name":"previousOwner","type":"address","indexed":true,"internalType":"address"},{"name":"newOwner","type":"address","indexed":true,"internalType":"address"}],"anonymous":false},{"type":"event","name":"Registered","inputs":[{"name":"agentId","type":"uint256","indexed":true,"internalType":"uint256"},{"name":"tokenURI","type":"string","indexed":false,"internalType":"string"},{"name":"owner","type":"address","indexed":true,"internalType":"address"}],"anonymous":false},{"type":"event","name":"Transfer","inputs":[{"name":"from","type":"address","indexed":true,"internalType":"address"},{"name":"to","type":"address","indexed":true,"internalType":"address"},{"name":"tokenId","type":"uint256","indexed":true,"internalType":"uint256"}],"anonymous":false},{"type":"event","name":"UriUpdated","inputs":[{"name":"agentId","type":"uint256","indexed":true,"internalType":"uint256"},{"name":"newUri","type":"string","indexed":false,"internalType":"string"},{"name":"updatedBy","type":"address","indexed":true,"internalType":"address"}],"anonymous":false},{"type":"error","name":"ERC721IncorrectOwner","inputs":[{"name":"sender","type":"address","internalType":"address"},{"name":"tokenId","type":"uint256","internalType":"uint256"},{"name":"owner","type":"address","internalType":"address"}]},{"type":"error","name":"ERC721InsufficientApproval","inputs":[{"name":"operator","type":"address","internalType":"address"},{"name":"tokenId","type":"uint256","internalType":"uint256"}]},{"type":"error","name":"ERC721InvalidApprover","inputs":[{"name":"approver","type":"address","internalType":"address"}]},{"type":"error","name":"ERC721InvalidOperator","inputs":[{"name":"operator","type":"address","internalType":"address"}]},{"type":"error","name":"ERC721InvalidOwner","inputs":[{"name":"owner","type":"address","internalType":"address"}]},{"type":"error","name":"ERC721InvalidReceiver","inputs":[{"name":"receiver","type":"address","internalType":"address"}]},{"type":"error","name":"ERC721InvalidSender","inputs":[{"name":"sender","type":"address","internalType":"address"}]},{"type":"error","name":"ERC721NonexistentToken","inputs":[{"name":"tokenId","type":"uint256","internalType":"uint256"}]},{"type":"error","name":"OwnableInvalidOwner","inputs":[{"name":"owner","type":"address","internalType":"address"}]},{"type":"error","name":"OwnableUnauthorizedAccount","inputs":[{"name":"account","type":"address","internalType":"address"}]}],"bytecode":{"object":"0x6080604052346200002d5762000014620001f2565b6200001e62000033565b6130f6620006ee82396130f690f35b62000039565b60405190565b5f80fd5b601f801991011690565b634e487b7160e01b5f52604160045260245ffd5b9062000067906200003d565b810190811060018060401b038211176200008057604052565b62000047565b906200009d6200009562000033565b92836200005b565b565b60018060401b038111620000be57620000ba6020916200003d565b0190565b62000047565b90620000da620000d4836200009f565b62000086565b918252565b5f7f4167656e744964656e7469747900000000000000000000000000000000000000910152565b62000112600d620000c4565b906200012160208301620000df565b565b6200012d62000106565b90565b5f7f4149440000000000000000000000000000000000000000000000000000000000910152565b620001636003620000c4565b90620001726020830162000130565b565b6200017e62000157565b90565b5f1b90565b90620001945f199162000181565b9181191691161790565b90565b90565b90565b620001c0620001ba620001c6926200019e565b620001a4565b620001a1565b90565b90565b90620001e6620001e0620001ee92620001a7565b620001c9565b825462000186565b9055565b62000212336200020162000123565b6200020b62000174565b9162000290565b6200021f5f6008620001cc565b565b60018060a01b031690565b620002456200023f6200024b926200019e565b620001a4565b62000221565b90565b62000259906200022c565b90565b620002679062000221565b90565b62000275906200025c565b9052565b91906200028e905f602085019401906200026a565b565b916200029c9162000304565b80620002bd620002b6620002b05f6200024e565b6200025c565b916200025c565b14620002d057620002ce9062000680565b565b62000300620002df5f6200024e565b620002e962000033565b918291631e4fbdf760e01b83526004830162000279565b0390fd5b906200031091620005a5565b565b5190565b634e487b7160e01b5f52602260045260245ffd5b90600160028304921680156200034d575b60208310146200034757565b62000316565b91607f16916200033b565b5f5260205f2090565b601f602091010490565b1b90565b919060086200038e910291620003875f19846200036b565b926200036b565b9181191691161790565b620003b1620003ab620003b792620001a1565b620001a4565b620001a1565b90565b9190620003d5620003cf620003de9362000398565b620001c9565b9083546200036f565b9055565b5f90565b620003fc91620003f5620003e2565b91620003ba565b565b5b8181106200040b575050565b806200041a5f600193620003e6565b01620003ff565b9190601f811162000432575b505050565b620004416200046c9362000358565b9060206200044f8462000361565b8301931062000475575b620004649062000361565b0190620003fe565b5f80806200042d565b9150620004648192905062000459565b1c90565b906200049b905f199060080262000485565b191690565b81620004ac9162000489565b906002021790565b90620004c08162000312565b9060018060401b0382116200059157620004e782620004e085546200032a565b8562000421565b602090601f831160011462000520579180916200050e935f9262000513575b5050620004a0565b90555b565b90915001515f8062000506565b601f19831691620005318562000358565b925f5b81811062000578575091600293918560019694106200055b575b5050500201905562000511565b6200056d910151601f84169062000489565b90555f80806200054e565b9193602060018192878701518155019501920162000534565b62000047565b90620005a391620004b4565b565b90620005b6620005be925f62000597565b600162000597565b565b5f1c90565b60018060a01b031690565b620005df620005e591620005c0565b620005c5565b90565b620005f49054620005d0565b90565b906200060a60018060a01b039162000181565b9181191691161790565b6200062d62000627620006339262000221565b620001a4565b62000221565b90565b620006419062000614565b90565b6200064f9062000636565b90565b90565b906200066f62000669620006779262000644565b62000652565b8254620005f7565b9055565b5f0190565b6200068c6007620005e8565b6200069982600762000655565b90620006d1620006ca7f8be0079c531659141344cd1fd0a4f28419497f9722a3daafe3b4186f6b6457e09362000644565b9162000644565b91620006dc62000033565b80620006e8816200067b565b0390a356fe60806040526004361015610013575b610df2565b61001d5f3561017c565b806301ffc9a71461017757806306fdde0314610172578063081812fc1461016d578063095ea7b3146101685780631aa3a0081461016357806323b872dd1461015e57806342842e0e14610159578063466648da146101545780635a7531491461014f5780636352211e1461014a57806370a0823114610145578063715018a6146101405780638da5cb5b1461013b5780638ea422861461013657806395d89b4114610131578063a22cb4651461012c578063b88d4fde14610127578063c87b56dd14610122578063cb4799f21461011d578063e985e9c514610118578063f2c298be146101135763f2fde38b0361000e57610dbf565b610d8a565b610d1f565b610cbc565b610bec565b610bb5565b610b22565b610a9d565b610a67565b6108ae565b61087b565b610846565b6107f3565b6107bf565b6106fe565b610504565b6104d0565b610461565b61040b565b610381565b6102cf565b610208565b60e01c90565b60405190565b5f80fd5b5f80fd5b5f80fd5b63ffffffff60e01b1690565b6101a981610194565b036101b057565b5f80fd5b905035906101c1826101a0565b565b906020828203126101dc576101d9915f016101b4565b90565b61018c565b151590565b6101ef906101e1565b9052565b9190610206905f602085019401906101e6565b565b346102385761023461022361021e3660046101c3565b610e2f565b61022b610182565b918291826101f3565b0390f35b610188565b5f91031261024757565b61018c565b5190565b60209181520190565b5f5b83811061026b575050905f910152565b80602091830151818501520161025b565b601f801991011690565b6102a56102ae6020936102b39361029c8161024c565b93848093610250565b95869101610259565b61027c565b0190565b6102cc9160208201915f818403910152610286565b90565b346102ff576102df36600461023d565b6102fb6102ea610f8b565b6102f2610182565b918291826102b7565b0390f35b610188565b90565b61031081610304565b0361031757565b5f80fd5b9050359061032882610307565b565b9060208282031261034357610340915f0161031b565b90565b61018c565b60018060a01b031690565b61035c90610348565b90565b61036890610353565b9052565b919061037f905f6020850194019061035f565b565b346103b1576103ad61039c61039736600461032a565b610fa4565b6103a4610182565b9182918261036c565b0390f35b610188565b6103bf81610353565b036103c657565b5f80fd5b905035906103d7826103b6565b565b919060408382031261040157806103f56103fe925f86016103ca565b9360200161031b565b90565b61018c565b5f0190565b3461043a5761042461041e3660046103d9565b90610fc3565b61042c610182565b8061043681610406565b0390f35b610188565b61044890610304565b9052565b919061045f905f6020850194019061043f565b565b346104915761047136600461023d565b61048d61047c6110ee565b610484610182565b9182918261044c565b0390f35b610188565b90916060828403126104cb576104c86104b1845f85016103ca565b936104bf81602086016103ca565b9360400161031b565b90565b61018c565b346104ff576104e96104e3366004610496565b916111ca565b6104f1610182565b806104fb81610406565b0390f35b610188565b346105335761051d610517366004610496565b916112a1565b610525610182565b8061052f81610406565b0390f35b610188565b5f80fd5b5f80fd5b634e487b7160e01b5f52604160045260245ffd5b9061055e9061027c565b810190811067ffffffffffffffff82111761057857604052565b610540565b90610590610589610182565b9283610554565b565b67ffffffffffffffff81116105b0576105ac60209161027c565b0190565b610540565b90825f939282370152565b909291926105d56105d082610592565b61057d565b938185526020850190828401116105f1576105ef926105b5565b565b61053c565b9080601f8301121561061457816020610611933591016105c0565b90565b610538565b67ffffffffffffffff81116106375761063360209161027c565b0190565b610540565b9092919261065161064c82610619565b61057d565b9381855260208501908284011161066d5761066b926105b5565b565b61053c565b9080601f830112156106905781602061068d9335910161063c565b90565b610538565b916060838303126106f9576106ac825f850161031b565b92602081013567ffffffffffffffff81116106f457836106cd9183016105f6565b92604082013567ffffffffffffffff81116106ef576106ec9201610672565b90565b610190565b610190565b61018c565b3461072d57610717610711366004610695565b91611616565b61071f610182565b8061072981610406565b0390f35b610188565b5f80fd5b5f80fd5b909182601f830112156107745781359167ffffffffffffffff831161076f57602001926001830284011161076a57565b610736565b610732565b610538565b9190916040818403126107ba57610792835f830161031b565b92602082013567ffffffffffffffff81116107b5576107b1920161073a565b9091565b610190565b61018c565b346107ee576107d86107d2366004610779565b91611742565b6107e0610182565b806107ea81610406565b0390f35b610188565b346108235761081f61080e61080936600461032a565b611818565b610816610182565b9182918261036c565b0390f35b610188565b906020828203126108415761083e915f016103ca565b90565b61018c565b346108765761087261086161085c366004610828565b611843565b610869610182565b9182918261044c565b0390f35b610188565b346108a95761088b36600461023d565b6108936118d5565b61089b610182565b806108a581610406565b0390f35b610188565b346108de576108be36600461023d565b6108da6108c961190b565b6108d1610182565b9182918261036c565b0390f35b610188565b67ffffffffffffffff81116108fb5760208091020190565b610540565b5f80fd5b5f80fd5b9190916040818403126109725761091f604061057d565b925f82013567ffffffffffffffff811161096d578161093f9184016105f6565b5f850152602082013567ffffffffffffffff8111610968576109619201610672565b6020830152565b610904565b610904565b610900565b92919061098b610986826108e3565b61057d565b93818552602080860192028101918383116109e25781905b8382106109b1575050505050565b813567ffffffffffffffff81116109dd576020916109d28784938701610908565b8152019101906109a3565b610538565b610736565b9080601f83011215610a0557816020610a0293359101610977565b90565b610538565b919091604081840312610a62575f81013567ffffffffffffffff8111610a5d5783610a369183016105f6565b92602082013567ffffffffffffffff8111610a5857610a5592016109e7565b90565b610190565b610190565b61018c565b34610a9857610a94610a83610a7d366004610a0a565b90611984565b610a8b610182565b9182918261044c565b0390f35b610188565b34610acd57610aad36600461023d565b610ac9610ab8611b05565b610ac0610182565b918291826102b7565b0390f35b610188565b610adb816101e1565b03610ae257565b5f80fd5b90503590610af382610ad2565b565b9190604083820312610b1d5780610b11610b1a925f86016103ca565b93602001610ae6565b90565b61018c565b34610b5157610b3b610b35366004610af5565b90611b1b565b610b43610182565b80610b4d81610406565b0390f35b610188565b90608082820312610bb057610b6d815f84016103ca565b92610b7b82602085016103ca565b92610b89836040830161031b565b92606082013567ffffffffffffffff8111610bab57610ba89201610672565b90565b610190565b61018c565b34610be757610bd1610bc8366004610b56565b92919091611b31565b610bd9610182565b80610be381610406565b0390f35b610188565b34610c1c57610c18610c07610c0236600461032a565b611bb4565b610c0f610182565b918291826102b7565b0390f35b610188565b919091604081840312610c6157610c3a835f830161031b565b92602082013567ffffffffffffffff8111610c5c57610c5992016105f6565b90565b610190565b61018c565b5190565b60209181520190565b610c92610c9b602093610ca093610c8981610c66565b93848093610c6a565b95869101610259565b61027c565b0190565b610cb99160208201915f818403910152610c73565b90565b34610ced57610ce9610cd8610cd2366004610c21565b90611d29565b610ce0610182565b91829182610ca4565b0390f35b610188565b9190604083820312610d1a5780610d0e610d17925f86016103ca565b936020016103ca565b90565b61018c565b34610d5057610d4c610d3b610d35366004610cf2565b90611da4565b610d43610182565b918291826101f3565b0390f35b610188565b90602082820312610d85575f82013567ffffffffffffffff8111610d8057610d7d92016105f6565b90565b610190565b61018c565b34610dba57610db6610da5610da0366004610d55565b611dcc565b610dad610182565b9182918261044c565b0390f35b610188565b34610ded57610dd7610dd2366004610828565b611ec6565b610ddf610182565b80610de981610406565b0390f35b610188565b5f80fd5b5f90565b90565b60e01b90565b610e17610e12610e1c92610dfa565b610dfd565b610194565b90565b610e2c6349064906610e03565b90565b610e37610df6565b5080610e52610e4c610e47610e1f565b610194565b91610194565b14908115610e5f575b5090565b610e699150611ed1565b5f610e5b565b606090565b634e487b7160e01b5f52602260045260245ffd5b9060016002830492168015610ea8575b6020831014610ea357565b610e74565b91607f1691610e98565b60209181520190565b5f5260205f2090565b905f9291805490610ede610ed783610e88565b8094610eb2565b916001811690815f14610f355750600114610ef9575b505050565b610f069192939450610ebb565b915f925b818410610f1d57505001905f8080610ef4565b60018160209295939554848601520191019290610f0a565b92949550505060ff19168252151560200201905f8080610ef4565b90610f5a91610ec4565b90565b90610f7d610f7692610f6d610182565b93848092610f50565b0383610554565b565b610f8890610f5d565b90565b610f93610e6f565b50610f9d5f610f7f565b90565b5f90565b610fc090610fb0610fa0565b50610fba81611f39565b50611fac565b90565b90610fd79190610fd1611fcb565b91611fd8565b565b5f90565b5f1c90565b90565b610ff1610ff691610fdd565b610fe2565b90565b6110039054610fe5565b90565b634e487b7160e01b5f52601160045260245ffd5b61102390610304565b5f1981146110315760010190565b611006565b5f1b90565b906110475f1991611036565b9181191691161790565b90565b61106861106361106d92610304565b611051565b610304565b90565b90565b9061108861108361108f92611054565b611070565b825461103b565b9055565b6110a76110a26110ac92610348565b611051565b610348565b90565b6110b890611093565b90565b6110c4906110af565b90565b6110d25f8092610250565b0190565b6110eb9060208101905f8183039101526110c7565b90565b6110f6610fd9565b506111016008610ff9565b61111461110d8261101a565b6008611073565b90611120338390611fe8565b813361115561114f7fca52e62c367d81bb2e328eb795f7c7ba24afb478408a26c0e201d155c449bc4a93611054565b916110bb565b9161115e610182565b80611168816110d6565b0390a3565b90565b61118461117f6111899261116d565b611051565b610348565b90565b61119590611170565b90565b6040906111c16111c894969593966111b760608401985f85019061035f565b602083019061043f565b019061035f565b565b9190806111e76111e16111dc5f61118c565b610353565b91610353565b14611245576111ff90826111f9611fcb565b91612077565b918261121361120d83610353565b91610353565b0361121d57505050565b61124190919261122b610182565b9384936364283d7b60e01b855260048501611198565b0390fd5b61126f6112515f61118c565b611259610182565b918291633250574960e11b83526004830161036c565b0390fd5b9061128561128083610592565b61057d565b918252565b6112935f611273565b90565b61129e61128a565b90565b916112b592916112af611296565b92611b31565b565b5f7f4e6f7420617574686f72697a6564000000000000000000000000000000000000910152565b6112eb600e602092610250565b6112f4816112b7565b0190565b61130d9060208101905f8183039101526112de565b90565b1561131757565b61131f610182565b62461bcd60e51b815280611335600482016112f8565b0390fd5b9061134390611054565b5f5260205260405f2090565b905090565b611379611370926020926113678161024c565b9485809361134f565b93849101610259565b0190565b90565b61138c61139191610304565b61137d565b9052565b6113a56113ac9160209493611354565b8092611380565b0190565b6113c46113bb610182565b92839283611395565b03902090565b6113d3916113b0565b90565b5f5260205f2090565b601f602091010490565b1b90565b919060086114089102916114025f19846113e9565b926113e9565b9181191691161790565b919061142861142361143093611054565b611070565b9083546113ed565b9055565b61144691611440610fd9565b91611412565b565b5b818110611454575050565b806114615f600193611434565b01611449565b9190601f8111611477575b505050565b6114836114a8936113d6565b90602061148f846113df565b830193106114b0575b6114a1906113df565b0190611448565b5f8080611472565b91506114a181929050611498565b1c90565b906114d2905f19906008026114be565b191690565b816114e1916114c2565b906002021790565b906114f381610c66565b9067ffffffffffffffff82116115b357611517826115118554610e88565b85611467565b602090601f831160011461154b5791809161153a935f9261153f575b50506114d7565b90555b565b90915001515f80611533565b601f1983169161155a856113d6565b925f5b81811061159b57509160029391856001969410611581575b5050500201905561153d565b611591910151601f8416906114c2565b90555f8080611575565b9193602060018192878701518155019501920161155d565b610540565b906115c2916114e9565b565b6115cd91611354565b90565b6115e5906115dc610182565b918291826115c4565b03902090565b90916116056116139360408401908482035f860152610286565b916020818403910152610c73565b90565b3361163161162b611626846121f8565b610353565b91610353565b1480156116de575b80156116b7575b61164990611310565b6116688361166361165c60098590611339565b85906113ca565b6115b8565b819261169d6116977f2c149ed548c6d2993cd73efe187df6eccabe4538091b33adbd25fafdb8a1468b93611054565b936115d0565b936116b26116a9610182565b928392836115eb565b0390a3565b50611649336116d66116d06116cb85610fa4565b610353565b91610353565b149050611640565b506116f26116eb826121f8565b3390611da4565b611639565b6117029136916105c0565b90565b919061171f816117188161172495610250565b80956105b5565b61027c565b0190565b909161173f9260208301925f818503910152611705565b90565b61174b81611818565b3361175e61175883610353565b91610353565b14908115611806575b5080156117df575b61177890611310565b61178d816117878486906116f7565b90612349565b90919033916117c56117bf7fb41beef75d9f8d55b985319b459e96f82453580af381391f1ad531eb8f8b5a3a93611054565b936110bb565b936117da6117d1610182565b92839283611728565b0390a3565b50611778336117fe6117f86117f385610fa4565b610353565b91610353565b14905061176f565b61181291503390611da4565b5f611767565b61182a90611824610fa0565b50611f39565b90565b90611837906110bb565b5f5260205260405f2090565b61184b610fd9565b508061186761186161185c5f61118c565b610353565b91610353565b146118825761187a61187f91600361182d565b610ff9565b90565b6118ac61188e5f61118c565b611896610182565b9182916322718ad960e21b83526004830161036c565b0390fd5b6118b861239a565b6118c06118c2565b565b6118d36118ce5f61118c565b6123ef565b565b6118dd6118b0565b565b60018060a01b031690565b6118f66118fb91610fdd565b6118df565b90565b61190890546118ea565b90565b611913610fa0565b5061191e60076118fe565b90565b61193561193061193a9261116d565b611051565b610304565b90565b60016119499101610304565b90565b5190565b634e487b7160e01b5f52603260045260245ffd5b9061196e8261194c565b81101561197f576020809102010190565b611950565b919061198e610fd9565b506119996008610ff9565b6119ac6119a58261101a565b6008611073565b926119b8338590611fe8565b6119c3848290612349565b833390611a0e6119fc6119f67fca52e62c367d81bb2e328eb795f7c7ba24afb478408a26c0e201d155c449bc4a93611054565b936110bb565b93611a05610182565b918291826102b7565b0390a3611a1a5f611921565b5b80611a36611a30611a2b8561194c565b610304565b91610304565b1015611b0157611afc90611a7c6020611a50858490611964565b510151611a77611a6260098990611339565b5f611a6e888790611964565b510151906113ca565b6115b8565b845f611a89858490611964565b5101515f611a98868590611964565b510151916020611aa9878690611964565b510151611adf611ad97f2c149ed548c6d2993cd73efe187df6eccabe4538091b33adbd25fafdb8a1468b93611054565b936115d0565b93611af4611aeb610182565b928392836115eb565b0390a361193d565b611a1b565b5050565b611b0d610e6f565b50611b186001610f7f565b90565b611b2f91611b27611fcb565b919091612495565b565b91611b559391611b43848284916111ca565b611b4b611fcb565b9390919293612621565b565b90611b6190611054565b5f5260205260405f2090565b90565b611b7e90611b849392611354565b90611354565b90565b611ba69291611bb291611b98610182565b948592602084019283611b70565b90810382520383610554565b565b611bbc610e6f565b50611bc681611f39565b50611bdb611bd660068390611b57565b610f7f565b611be361278e565b611bf4611bef82611b6d565b610c66565b611c06611c005f611921565b91610304565b14611c4e57611c1c611c1783611b6d565b610c66565b611c2e611c285f611921565b91610304565b11611c41575050611c3e906127a2565b90565b611c4b9250611b87565b90565b50905090565b606090565b60209181520190565b905f9291805490611c7c611c7583610e88565b8094611c59565b916001811690815f14611cd35750600114611c97575b505050565b611ca491929394506113d6565b915f925b818410611cbb57505001905f8080611c92565b60018160209295939554848601520191019290611ca8565b92949550505060ff19168252151560200201905f8080611c92565b90611cf891611c62565b90565b90611d1b611d1492611d0b610182565b93848092611cee565b0383610554565b565b611d2690611cfb565b90565b611d4e91611d44611d4992611d3c611c54565b506009611339565b6113ca565b611d1d565b90565b90611d5b906110bb565b5f5260205260405f2090565b90611d71906110bb565b5f5260205260405f2090565b60ff1690565b611d8f611d9491610fdd565b611d7d565b90565b611da19054611d83565b90565b611dc991611dbf611dc492611db7610df6565b506005611d51565b611d67565b611d97565b90565b90611dd5610fd9565b50611de06008610ff9565b611df3611dec8261101a565b6008611073565b91611dff338490611fe8565b611e0a838290612349565b823390611e55611e43611e3d7fca52e62c367d81bb2e328eb795f7c7ba24afb478408a26c0e201d155c449bc4a93611054565b936110bb565b93611e4c610182565b918291826102b7565b0390a3565b611e6b90611e6661239a565b611e6d565b565b80611e88611e82611e7d5f61118c565b610353565b91610353565b14611e9857611e96906123ef565b565b611ec2611ea45f61118c565b611eac610182565b918291631e4fbdf760e01b83526004830161036c565b0390fd5b611ecf90611e5a565b565b611ed9610df6565b5080611ef4611eee6380ac58cd60e01b610194565b91610194565b148015611f18575b908115611f08575b5090565b611f12915061280e565b5f611f04565b5080611f33611f2d635b5e139f60e01b610194565b91610194565b14611efc565b611f41610fa0565b50611f4b816121f8565b9081611f67611f61611f5c5f61118c565b610353565b91610353565b14611f70575090565b611f9290611f7c610182565b918291637e27328960e01b83526004830161044c565b0390fd5b90611fa090611054565b5f5260205260405f2090565b611fc3611fc891611fbb610fa0565b506004611f96565b6118fe565b90565b611fd3610fa0565b503390565b91611fe69291600192612834565b565b90611ffc9190611ff6611296565b91612985565b565b90565b61201561201061201a92611ffe565b611051565b610304565b90565b906120289103610304565b90565b906120369101610304565b90565b9061204a60018060a01b0391611036565b9181191691161790565b90565b9061206c612067612073926110bb565b612054565b8254612039565b9055565b90612080610fa0565b5061208a816121f8565b92806120a66120a061209b5f61118c565b610353565b91610353565b036121e5575b50826120c86120c26120bd5f61118c565b610353565b91610353565b03612191575b816120e96120e36120de5f61118c565b610353565b91610353565b0361215b575b612104826120ff60028490611f96565b612057565b829161214261213c6121367fddf252ad1be2c89b69c2b068fc378daa952ba7f163c4a11628f55a4df523b3ef956110bb565b926110bb565b92611054565b9261214b610182565b8061215581610406565b0390a490565b61218c6121686001612001565b6121866121776003869061182d565b9161218183610ff9565b61202b565b90611073565b6120ef565b6121af61219d5f61118c565b826121a75f61118c565b905f92612834565b6121e06121bc6001612001565b6121da6121cb6003879061182d565b916121d583610ff9565b61201d565b90611073565b6120ce565b6121f290849083916129d6565b5f6120ac565b61220f61221491612207610fa0565b506002611f96565b6118fe565b90565b9190601f8111612227575b505050565b61223361225893610ebb565b90602061223f846113df565b83019310612260575b612251906113df565b0190611448565b5f8080612222565b915061225181929050612248565b906122788161024c565b9067ffffffffffffffff82116123385761229c826122968554610e88565b85612217565b602090601f83116001146122d0579180916122bf935f926122c4575b50506114d7565b90555b565b90915001515f806122b8565b601f198316916122df85610ebb565b925f5b81811061232057509160029391856001969410612306575b505050020190556122c2565b612316910151601f8416906114c2565b90555f80806122fa565b919360206001819287870151815501950192016122e2565b610540565b906123479161226e565b565b9061235f9061235a60068490611b57565b61233d565b6123957ff8e1a15aba9398e019f0b49df1a4fde98ee17ae345cb5f6b5e2c27f5033e8ce79161238c610182565b9182918261044c565b0390a1565b6123a261190b565b6123bb6123b56123b0611fcb565b610353565b91610353565b036123c257565b6123eb6123cd611fcb565b6123d5610182565b91829163118cdaa760e01b83526004830161036c565b0390fd5b6123f960076118fe565b612404826007612057565b906124386124327f8be0079c531659141344cd1fd0a4f28419497f9722a3daafe3b4186f6b6457e0936110bb565b916110bb565b91612441610182565b8061244b81610406565b0390a3565b9061245c60ff91611036565b9181191691161790565b61246f906101e1565b90565b90565b9061248a61248561249192612466565b612472565b8254612450565b9055565b919091826124b36124ad6124a85f61118c565b610353565b91610353565b14612527576124d7826124d26124cb60058590611d51565b8690611d67565b612475565b91909161252261251061250a7f17307eab39ab6107e8899845ad3d59bd9653f200f220920489ca2b5937696c31936110bb565b936110bb565b93612519610182565b918291826101f3565b0390a3565b61254983612533610182565b918291630b61174360e31b83526004830161036c565b0390fd5b61255690611093565b90565b6125629061254d565b90565b61256e906110af565b90565b9050519061257e826101a0565b565b9060208282031261259957612596915f01612571565b90565b61018c565b90926125d1906125c76125de96946125bd60808601975f87019061035f565b602085019061035f565b604083019061043f565b6060818403910152610c73565b90565b906125f36125ee83610619565b61057d565b918252565b3d5f14612613576126083d6125e1565b903d5f602084013e5b565b61261b611c54565b90612611565b9193843b6126376126315f611921565b91610304565b11612644575b5050505050565b61267c5f60209461268761265f61265a8a612559565b612565565b9463150b7a02929698612670610182565b998a9889978896610dfd565b86526004860161259e565b03925af180915f92612753575b50155f14612709575060016126af57505b5f8080808061263d565b6126b76125f8565b906126c182610c66565b6126d36126cd5f611921565b91610304565b145f14612700576126fc906126e6610182565b918291633250574960e11b83526004830161036c565b0390fd5b50602081519101fd5b61272261271c630a85bd0160e11b610194565b91610194565b0361272d57506126a5565b61274f90612739610182565b918291633250574960e11b83526004830161036c565b0390fd5b61277591925060203d811161277c575b61276d8183610554565b810190612580565b905f612694565b503d612763565b61278b61128a565b90565b612796610e6f565b5061279f612783565b90565b6127aa610e6f565b506127b481611f39565b506127bd61278e565b906127cf6127ca83611b6d565b610c66565b6127e16127db5f611921565b91610304565b115f146127ff576127f56127fb9291612af0565b90611b87565b5b90565b5050612809612783565b6127fc565b612816610df6565b5061283061282a6301ffc9a760e01b610194565b91610194565b1490565b919092808015612962575b61285d575b50509061285661285b92916004611f96565b612057565b565b61286684611f39565b918061288261287c6128775f61118c565b610353565b91610353565b141580612947575b8061292d575b6129075750916128569161285b94936128ac575b509192612844565b8184906128eb6128e56128df7f8c5be1e5ebec7d5bd14f71427d1e84f3dd0314c0f7b2291e5b200ac8c7c3b925956110bb565b926110bb565b92611054565b926128f4610182565b806128fe81610406565b0390a45f6128a4565b61292990612913610182565b91829163a9fbf51f60e01b83526004830161036c565b0390fd5b5061294261293c848390611da4565b156101e1565b612890565b508261295b61295583610353565b91610353565b141561288a565b508161297e6129786129735f61118c565b610353565b91610353565b141561283f565b90916129b192612996838290612b99565b61299e611fcb565b926129a85f61118c565b90919293612621565b565b9160206129d49294936129cd60408201965f83019061035f565b019061043f565b565b6129eb6129e582848691612c4b565b156101e1565b6129f457505050565b612a0e612a08612a035f61118c565b610353565b91610353565b145f14612a3b57612a3782612a21610182565b918291637e27328960e01b83526004830161044c565b0390fd5b612a5c612a46610182565b92839263177e802f60e01b8452600484016129b3565b0390fd5b369037565b90612a8a612a7283611273565b92602080612a808693610592565b9201910390612a60565b565b6001612a989103610304565b90565b90565b612ab2612aad612ab792612a9b565b611051565b610304565b90565b634e487b7160e01b5f52601260045260245ffd5b612ada612ae091610304565b91610304565b908115612aeb570490565b612aba565b612af8610e6f565b50612b15612b0582612e5f565b612b0f6001612001565b9061202b565b90612b1f82612a65565b91612b28610fd9565b5060208301015b600115612b9257612b42612b6e91612a8c565b916f181899199a1a9b1b9c1cb0b131b232b360811b600a82061a8353612b68600a612a9e565b90612ace565b80612b81612b7b5f611921565b91610304565b14612b8c5790612b2f565b50505b90565b5050612b8f565b9081612bb5612baf612baa5f61118c565b610353565b91610353565b14612c1d57612bce9190612bc85f61118c565b91612077565b612be8612be2612bdd5f61118c565b610353565b91610353565b03612bef57565b612c19612bfb5f61118c565b612c03610182565b9182916339e3563760e11b83526004830161036c565b0390fd5b612c47612c295f61118c565b612c31610182565b918291633250574960e11b83526004830161036c565b0390fd5b9190612c55610df6565b5080612c71612c6b612c665f61118c565b610353565b91610353565b14159283612c80575b50505090565b8091929350612c97612c9184610353565b91610353565b14908115612cd9575b50918215612cb3575b50505f8080612c7a565b612cd1919250612cc5612ccb91611fac565b92610353565b91610353565b145f80612ca9565b612ce591508290611da4565b5f612ca0565b90565b612d02612cfd612d0792612ceb565b611051565b610304565b90565b90565b612d21612d1c612d2692612d0a565b611051565b610304565b90565b90565b612d40612d3b612d4592612d29565b611051565b610304565b90565b90565b612d5f612d5a612d6492612d48565b611051565b610304565b90565b90565b612d7e612d79612d8392612d67565b611051565b610304565b90565b90565b612d9d612d98612da292612d86565b611051565b610304565b90565b90565b612dbc612db7612dc192612da5565b611051565b610304565b90565b90565b612ddb612dd6612de092612dc4565b611051565b610304565b90565b90565b612dfa612df5612dff92612de3565b611051565b610304565b90565b90565b612e19612e14612e1e92612e02565b611051565b610304565b90565b90565b612e38612e33612e3d92612e21565b611051565b610304565b90565b90565b612e57612e52612e5c92612e40565b611051565b610304565b90565b612e67610fd9565b50612e715f611921565b9080612ea0612e9a7a184f03e93ff9f4daa797ed6e38ed64bf6a1f010000000000000000612cee565b91610304565b1015613078575b80612ec8612ec26d04ee2d6d415b85acef8100000000612d2c565b91610304565b101561303d575b80612ee9612ee3662386f26fc10000612d6a565b91610304565b1015613009575b80612f07612f016305f5e100612da8565b91610304565b1015612fd8575b80612f23612f1d612710612de6565b91610304565b1015612fa9575b80612f3e612f386064612e24565b91610304565b1015612f7b575b612f58612f52600a612a9e565b91610304565b1015612f62575b90565b612f7690612f706001612001565b9061202b565b612f5f565b612f92612fa391612f8c6064612e24565b90612ace565b91612f9d6002612e43565b9061202b565b90612f45565b612fc1612fd291612fbb612710612de6565b90612ace565b91612fcc6004612e05565b9061202b565b90612f2a565b612ff261300391612fec6305f5e100612da8565b90612ace565b91612ffd6008612dc7565b9061202b565b90612f0e565b61302661303791613020662386f26fc10000612d6a565b90612ace565b916130316010612d89565b9061202b565b90612ef0565b6130616130729161305b6d04ee2d6d415b85acef8100000000612d2c565b90612ace565b9161306c6020612d4b565b9061202b565b90612ecf565b6130a96130ba916130a37a184f03e93ff9f4daa797ed6e38ed64bf6a1f010000000000000000612cee565b90612ace565b916130b46040612d0d565b9061202b565b90612ea756fea2646970667358221220c84bfd747d21941ab456c9641ff5bbcbd7e05e28cdc5fa049e109419af8db19164736f6c63430008180033","linkReferences":{}},"methodIdentifiers":{"approve(address,uint256)":"095ea7b3","balanceOf(address)":"70a08231","getApproved(uint256)":"081812fc","getMetadata(uint256,string)":"cb4799f2","isApprovedForAll(address,address)":"e985e9c5","name()":"06fdde03","owner()":"8da5cb5b","ownerOf(uint256)":"6352211e","register()":"1aa3a008","register(string)":"f2c298be","register(string,(string,bytes)[])":"8ea42286","renounceOwnership()":"715018a6","safeTransferFrom(address,address,uint256)":"42842e0e","safeTransferFrom(address,address,uint256,bytes)":"b88d4fde","setAgentUri(uint256,string)":"5a753149","setApprovalForAll(address,bool)":"a22cb465","setMetadata(uint256,string,bytes)":"466648da","supportsInterface(bytes4)":"01ffc9a7","symbol()":"95d89b41","tokenURI(uint256)":"c87b56dd","transferFrom(address,address,uint256)":"23b872dd","transferOwnership(address)":"f2fde38b"},"id":50}