{"abi":[{"type":"constructor","inputs":[{"name":"teeRegistry_","type":"address","internalType":"address"}],"stateMutability":"nonpayable"},{"type":"function","name":"getRequest","inputs":[{"name":"requestId","type":"bytes32","internalType":"bytes32"}],"outputs":[{"name":"","type":"tuple","internalType":"struct TeeOracle.Request","components":[{"name":"requester","type":"address","internalType":"address"},{"name":"rewardToken","type":"address","internalType":"address"},{"name":"reward","type":"uint256","internalType":"uint256"},{"name":"timestamp","type":"uint256","internalType":"uint256"},{"name":"identifier","type":"bytes32","internalType":"bytes32"},{"name":"ancillaryData","type":"bytes","internalType":"bytes"},{"name":"settled","type":"bool","internalType":"bool"},{"name":"settledPrice","type":"int256","internalType":"int256"},{"name":"evidenceHash","type":"bytes32","internalType":"bytes32"},{"name":"resolver","type":"address","internalType":"address"}]}],"stateMutability":"view"},{"type":"function","name":"hasPrice","inputs":[{"name":"","type":"address","internalType":"address"},{"name":"identifier","type":"bytes32","internalType":"bytes32"},{"name":"timestamp","type":"uint256","internalType":"uint256"},{"name":"ancillaryData","type":"bytes","internalType":"bytes"}],"outputs":[{"name":"","type":"bool","internalType":"bool"}],"stateMutability":"view"},{"type":"function","name":"pendingRequests","inputs":[],"outputs":[{"name":"","type":"bytes32[]","internalType":"bytes32[]"}],"stateMutability":"view"},{"type":"function","name":"requestPrice","inputs":[{"name":"identifier","type":"bytes32","internalType":"bytes32"},{"name":"timestamp","type":"uint256","internalType":"uint256"},{"name":"ancillaryData","type":"bytes","internalType":"bytes"},{"name":"rewardToken","type":"address","internalType":"address"},{"name":"reward","type":"uint256","internalType":"uint256"}],"outputs":[{"name":"requestId","type":"bytes32","internalType":"bytes32"}],"stateMutability":"nonpayable"},{"type":"function","name":"requests","inputs":[{"name":"","type":"bytes32","internalType":"bytes32"}],"outputs":[{"name":"requester","type":"address","internalType":"address"},{"name":"rewardToken","type":"address","internalType":"address"},{"name":"reward","type":"uint256","internalType":"uint256"},{"name":"timestamp","type":"uint256","internalType":"uint256"},{"name":"identifier","type":"bytes32","internalType":"bytes32"},{"name":"ancillaryData","type":"bytes","internalType":"bytes"},{"name":"settled","type":"bool","internalType":"bool"},{"name":"settledPrice","type":"int256","internalType":"int256"},{"name":"evidenceHash","type":"bytes32","internalType":"bytes32"},{"name":"resolver","type":"address","internalType":"address"}],"stateMutability":"view"},{"type":"function","name":"settleAndGetPrice","inputs":[{"name":"identifier","type":"bytes32","internalType":"bytes32"},{"name":"timestamp","type":"uint256","internalType":"uint256"},{"name":"ancillaryData","type":"bytes","internalType":"bytes"}],"outputs":[{"name":"","type":"int256","internalType":"int256"}],"stateMutability":"view"},{"type":"function","name":"settlePrice","inputs":[{"name":"identifier","type":"bytes32","internalType":"bytes32"},{"name":"timestamp","type":"uint256","internalType":"uint256"},{"name":"ancillaryData","type":"bytes","internalType":"bytes"},{"name":"price","type":"int256","internalType":"int256"},{"name":"evidenceHash","type":"bytes32","internalType":"bytes32"}],"outputs":[],"stateMutability":"nonpayable"},{"type":"function","name":"teeRegistry","inputs":[],"outputs":[{"name":"","type":"address","internalType":"contract ITEERegistry"}],"stateMutability":"view"},{"type":"event","name":"PriceRequested","inputs":[{"name":"requestId","type":"bytes32","indexed":true,"internalType":"bytes32"},{"name":"requester","type":"address","indexed":true,"internalType":"address"},{"name":"ancillaryData","type":"bytes","indexed":false,"internalType":"bytes"}],"anonymous":false},{"type":"event","name":"PriceSettled","inputs":[{"name":"requestId","type":"bytes32","indexed":true,"internalType":"bytes32"},{"name":"price","type":"int256","indexed":false,"internalType":"int256"},{"name":"resolver","type":"address","indexed":true,"internalType":"address"},{"name":"evidenceHash","type":"bytes32","indexed":false,"internalType":"bytes32"}],"anonymous":false},{"type":"error","name":"PriceNotAvailable","inputs":[]},{"type":"error","name":"RequestAlreadyExists","inputs":[]},{"type":"error","name":"RequestAlreadySettled","inputs":[]},{"type":"error","name":"RequestNotFound","inputs":[]},{"type":"error","name":"UnauthorizedResolver","inputs":[]}],"bytecode":{"object":"0x60806040523462000037576200001e6200001862000110565b620001d0565b620000286200003d565b611c9b620001ea8239611c9b90f35b62000043565b60405190565b5f80fd5b601f801991011690565b634e487b7160e01b5f52604160045260245ffd5b90620000719062000047565b810190811060018060401b038211176200008a57604052565b62000051565b90620000a76200009f6200003d565b928362000065565b565b5f80fd5b60018060a01b031690565b620000c390620000ad565b90565b620000d181620000b8565b03620000d957565b5f80fd5b90505190620000ec82620000c6565b565b906020828203126200010a5762000107915f01620000dd565b90565b620000a9565b6200013362001e8580380380620001278162000090565b928339810190620000ee565b90565b90565b620001526200014c6200015892620000ad565b62000136565b620000ad565b90565b620001669062000139565b90565b62000174906200015b565b90565b5f1b90565b906200018f60018060a01b039162000177565b9181191691161790565b620001a4906200015b565b90565b90565b90620001c4620001be620001cc9262000199565b620001a7565b82546200017c565b9055565b620001df620001e79162000169565b6003620001aa565b56fe60806040526004361015610013575b610c42565b61001d5f3561009c565b806311df92f1146100975780634a0aee291461009257806353b592391461008d578063987a5584146100885780639d86698514610083578063ae71bb511461007e578063bc58ccaa146100795763fb1e61ca0361000e57610c0d565b610a96565b6109eb565b610913565b61051a565b610447565b61039c565b6102b5565b60e01c90565b60405190565b5f80fd5b5f80fd5b5f80fd5b90565b6100c0816100b4565b036100c757565b5f80fd5b905035906100d8826100b7565b565b90565b6100e6816100da565b036100ed57565b5f80fd5b905035906100fe826100dd565b565b5f80fd5b5f80fd5b601f801991011690565b634e487b7160e01b5f52604160045260245ffd5b9061013090610108565b810190811067ffffffffffffffff82111761014a57604052565b610112565b9061016261015b6100a2565b9283610126565b565b67ffffffffffffffff81116101825761017e602091610108565b0190565b610112565b90825f939282370152565b909291926101a76101a282610164565b61014f565b938185526020850190828401116101c3576101c192610187565b565b610104565b9080601f830112156101e6578160206101e393359101610192565b90565b610100565b60018060a01b031690565b6101ff906101eb565b90565b61020b816101f6565b0361021257565b5f80fd5b9050359061022382610202565b565b919060a08382031261028e5761023d815f85016100cb565b9261024b82602083016100f1565b92604082013567ffffffffffffffff81116102895761026f846102869285016101c8565b9361027d8160608601610216565b936080016100f1565b90565b6100b0565b6100ac565b61029c906100b4565b9052565b91906102b3905f60208501940190610293565b565b346102e9576102e56102d46102cb366004610225565b93929092610f7f565b6102dc6100a2565b918291826102a0565b0390f35b6100a8565b5f9103126102f857565b6100ac565b5190565b60209181520190565b60200190565b610319906100b4565b9052565b9061032a81602093610310565b0190565b60200190565b9061035161034b610344846102fd565b8093610301565b9261030a565b905f5b8181106103615750505090565b90919261037a610374600192865161031d565b9461032e565b9101919091610354565b6103999160208201915f818403910152610334565b90565b346103cc576103ac3660046102ee565b6103c86103b7611196565b6103bf6100a2565b91829182610384565b0390f35b6100a8565b9160608383031261041d576103e8825f85016100cb565b926103f683602083016100f1565b92604082013567ffffffffffffffff81116104185761041592016101c8565b90565b6100b0565b6100ac565b90565b61042e90610422565b9052565b9190610445905f60208501940190610425565b565b346104785761047461046361045d3660046103d1565b916111b0565b61046b6100a2565b91829182610432565b0390f35b6100a8565b1c90565b60018060a01b031690565b61049c9060086104a1930261047d565b610481565b90565b906104af915461048c565b90565b6104be60035f906104a4565b90565b90565b6104d86104d36104dd926101eb565b6104c1565b6101eb565b90565b6104e9906104c4565b90565b6104f5906104e0565b90565b610501906104ec565b9052565b9190610518905f602085019401906104f8565b565b3461054a5761052a3660046102ee565b6105466105356104b2565b61053d6100a2565b91829182610505565b0390f35b6100a8565b9060208282031261056857610565915f016100cb565b90565b6100ac565b610576906100b4565b90565b906105839061056d565b5f5260205260405f2090565b5f1c90565b60018060a01b031690565b6105ab6105b09161058f565b610594565b90565b6105bd905461059f565b90565b90565b6105cf6105d49161058f565b6105c0565b90565b6105e190546105c3565b90565b90565b6105f36105f89161058f565b6105e4565b90565b61060590546105e7565b90565b634e487b7160e01b5f52602260045260245ffd5b906001600283049216801561063c575b602083101461063757565b610608565b91607f169161062c565b60209181520190565b5f5260205f2090565b905f929180549061067261066b8361061c565b8094610646565b916001811690815f146106c9575060011461068d575b505050565b61069a919293945061064f565b915f925b8184106106b157505001905f8080610688565b6001816020929593955484860152019101929061069e565b92949550505060ff19168252151560200201905f8080610688565b906106ee91610658565b90565b9061071161070a926107016100a2565b938480926106e4565b0383610126565b565b60ff1690565b61072561072a9161058f565b610713565b90565b6107379054610719565b90565b90565b61074961074e9161058f565b61073a565b90565b61075b905461073d565b90565b610768905f610579565b906107745f83016105b3565b91610781600182016105b3565b9161078e600283016105d7565b9161079b600382016105d7565b916107a8600483016105fb565b916107b5600582016106f1565b916107c26006830161072d565b916107cf60078201610751565b916107e860096107e1600885016105fb565b93016105b3565b90565b6107f4906101f6565b9052565b610801906100da565b9052565b5190565b60209181520190565b5f5b838110610824575050905f910152565b806020918301518185015201610814565b61085461085d6020936108629361084b81610805565b93848093610809565b95869101610812565b610108565b0190565b151590565b61087490610866565b9052565b956108f5916108ea916108dd61090a986101209b9f9e9c966109119e996108c96108ff9a60408f6108c26108d3966108b861014084019c5f8501906107eb565b60208301906107eb565b01906107f8565b60608d01906107f8565b60808b0190610293565b88820360a08a0152610835565b9a60c087019061086b565b60e0850190610425565b610100830190610293565b01906107eb565b565b346109505761094c61092e61092936600461054f565b61075e565b966109439a989a9691969592959493946100a2565b9a8b9a8b610878565b0390f35b6100a8565b61095e81610422565b0361096557565b5f80fd5b9050359061097682610955565b565b919060a0838203126109e157610990815f85016100cb565b9261099e82602083016100f1565b92604082013567ffffffffffffffff81116109dc576109c2846109d99285016101c8565b936109d08160608601610969565b936080016100cb565b90565b6100b0565b6100ac565b5f0190565b34610a1d57610a076109fe366004610978565b939290926113d7565b610a0f6100a2565b80610a19816109e6565b0390f35b6100a8565b90608082820312610a7c57610a39815f8401610216565b92610a4782602085016100cb565b92610a5583604083016100f1565b92606082013567ffffffffffffffff8111610a7757610a7492016101c8565b90565b6100b0565b6100ac565b9190610a94905f6020850194019061086b565b565b34610aca57610ac6610ab5610aac366004610a22565b929190916115f6565b610abd6100a2565b91829182610a81565b0390f35b6100a8565b610ad8906101f6565b9052565b610ae5906100da565b9052565b610b08610b11602093610b1693610aff81610805565b93848093610646565b95869101610812565b610108565b0190565b610b2390610866565b9052565b610b3090610422565b9052565b90610bf29061012080610baf6101408401610b555f8801515f870190610acf565b610b6760208801516020870190610acf565b610b7960408801516040870190610adc565b610b8b60608801516060870190610adc565b610b9d60808801516080870190610310565b60a087015185820360a0870152610ae9565b94610bc260c082015160c0860190610b1a565b610bd460e082015160e0860190610b27565b610be8610100820151610100860190610310565b0151910190610acf565b90565b610c0a9160208201915f818403910152610b34565b90565b34610c3d57610c39610c28610c2336600461054f565b6118b6565b610c306100a2565b91829182610bf5565b0390f35b6100a8565b5f80fd5b5f90565b610c6e610c7b949293610c6460608401955f850190610293565b60208301906107f8565b6040818403910152610835565b90565b60200190565b90565b90565b610c9e610c99610ca392610c87565b6104c1565b6101eb565b90565b610caf90610c8a565b90565b5f1b90565b90610cc860018060a01b0391610cb2565b9181191691161790565b610cdb906104e0565b90565b90565b90610cf6610cf1610cfd92610cd2565b610cde565b8254610cb7565b9055565b90610d0d5f1991610cb2565b9181191691161790565b610d2b610d26610d30926100da565b6104c1565b6100da565b90565b90565b90610d4b610d46610d5292610d17565b610d33565b8254610d01565b9055565b610d5f9061058f565b90565b90610d77610d72610d7e9261056d565b610d56565b8254610d01565b9055565b601f602091010490565b1b90565b91906008610dab910291610da55f1984610d8c565b92610d8c565b9181191691161790565b9190610dcb610dc6610dd393610d17565b610d33565b908354610d90565b9055565b5f90565b610ded91610de7610dd7565b91610db5565b565b5b818110610dfb575050565b80610e085f600193610ddb565b01610df0565b9190601f8111610e1e575b505050565b610e2a610e4f9361064f565b906020610e3684610d82565b83019310610e57575b610e4890610d82565b0190610def565b5f8080610e19565b9150610e4881929050610e3f565b90610e75905f199060080261047d565b191690565b81610e8491610e65565b906002021790565b90610e9681610805565b9067ffffffffffffffff8211610f5657610eba82610eb4855461061c565b85610e0e565b602090601f8311600114610eee57918091610edd935f92610ee2575b5050610e7a565b90555b565b90915001515f80610ed6565b601f19831691610efd8561064f565b925f5b818110610f3e57509160029391856001969410610f24575b50505002019055610ee0565b610f34910151601f841690610e65565b90555f8080610f18565b91936020600181928787015181550195019201610f00565b610112565b90610f6591610e8c565b565b610f7c9160208201915f818403910152610835565b90565b9493909192610f8c610c46565b5085610fba8491610fab87610f9f6100a2565b94859360208501610c4a565b60208201810382520382610126565b610fcc610fc682610805565b91610c7e565b2095610fe1610fdc5f8990610579565b610c84565b92610fed5f85016105b3565b611007611001610ffc5f610ca6565b6101f6565b916101f6565b036110b3576110589461103c6110459261103361104e9661102a335f8b01610ce1565b60018901610ce1565b60028701610d36565b60038501610d36565b60048301610d62565b6005839101610f5b565b61106183611a3b565b82903390916110ae61109c6110967f2f3e50fc3a1678cc802f9d4ed9c892d40a4aa1c4515105522bbaf532d025fb3d9361056d565b93610cd2565b936110a56100a2565b91829182610f67565b0390a3565b6110bb6100a2565b6317b5787760e11b8152806110d2600482016109e6565b0390fd5b606090565b5490565b60209181520190565b5f5260205f2090565b6110fb90546105e7565b90565b60010190565b9061112161111b611114846110db565b80936110df565b926110e8565b905f5b8181106111315750505090565b90919261115161114b600192611146876110f1565b61031d565b946110fe565b9101919091611124565b9061116591611104565b90565b90611188611181926111786100a2565b9384809261115b565b0383610126565b565b61119390611168565b90565b61119e6110d6565b506111a9600161118a565b90565b5f90565b916111ed611206926111de61120b956111c76111ac565b5091936111d26100a2565b94859360208501610c4a565b60208201810382520382610126565b6111ff6111f982610805565b91610c7e565b205f610579565b610c84565b6112165f82016105b3565b61123061122a6112255f610ca6565b6101f6565b916101f6565b146112805761124a6112446006830161072d565b15610866565b61125d57600761125a9101610751565b90565b6112656100a2565b63579a480160e01b81528061127c600482016109e6565b0390fd5b6112886100a2565b632589d98f60e11b81528061129f600482016109e6565b0390fd5b6112af6112b49161058f565b610481565b90565b6112c190546112a3565b90565b60e01b90565b6112d381610866565b036112da57565b5f80fd5b905051906112eb826112ca565b565b9060208282031261130657611303915f016112de565b90565b6100ac565b919061131e905f602085019401906107eb565b565b6113286100a2565b3d5f823e3d90fd5b9061133c60ff91610cb2565b9181191691161790565b61134f90610866565b90565b90565b9061136a61136561137192611346565b611352565b8254611330565b9055565b61138961138461138e92610422565b6104c1565b610422565b90565b90565b906113a96113a46113b092611375565b611391565b8254610d01565b9055565b9160206113d59294936113ce60408201965f830190610425565b0190610293565b565b906113f86114079295949591936113ec6100a2565b94859360208501610c4a565b60208201810382520382610126565b61141961141382610805565b91610c7e565b2061142d6114285f8390610579565b610c84565b6114385f82016105b3565b61145261144c6114475f610ca6565b6101f6565b916101f6565b146115cf576114636006820161072d565b6115ac576114a8602061147e61147960036112b7565b6104ec565b6327e1bdd89061149d33926114916100a2565b958694859384936112c4565b83526004830161130b565b03915afa80156115a7576114c4915f91611579575b5015610866565b611556576114fe906114da600160068301611355565b6114e78560078301611394565b6114f48460088301610d62565b6009339101610ce1565b61150781611b67565b339161153c6115367f516f1ec73995c75deaeb8055eeea73f5ce9f1b73d9a4aba453247218a0ef31129361056d565b93610cd2565b936115516115486100a2565b928392836113b4565b0390a3565b61155e6100a2565b63066fba9760e41b815280611575600482016109e6565b0390fd5b61159a915060203d81116115a0575b6115928183610126565b8101906112ed565b5f6114bd565b503d611588565b611320565b6115b46100a2565b6366fad46560e01b8152806115cb600482016109e6565b0390fd5b6115d76100a2565b632589d98f60e11b8152806115ee600482016109e6565b0390fd5b5f90565b509161163461164d926116256116529561160e6115f2565b5091936116196100a2565b94859360208501610c4a565b60208201810382520382610126565b61164661164082610805565b91610c7e565b205f610579565b610c84565b61165d5f82016105b3565b61167761167161166c5f610ca6565b6101f6565b916101f6565b1461168b576006611688910161072d565b90565b6116936100a2565b632589d98f60e11b8152806116aa600482016109e6565b0390fd5b6116b961014061014f565b90565b5f90565b5f90565b5f90565b606090565b5f90565b5f90565b6116dd6116ae565b9060208080808080808080808b6116f26116bc565b8152016116fd6116bc565b8152016117086116c0565b8152016117136116c0565b81520161171e6116c4565b8152016117296116c8565b8152016117346116cd565b81520161173f6116d1565b81520161174a6116c4565b8152016117556116bc565b81525050565b6117636116d5565b90565b90611770906101f6565b9052565b9061177e906100da565b9052565b9061178c906100b4565b9052565b52565b9061179d90610866565b9052565b906117ab90610422565b9052565b906118a861189e60096117c06116ae565b946117d76117cf5f83016105b3565b5f8801611766565b6117ef6117e6600183016105b3565b60208801611766565b6118076117fe600283016105d7565b60408801611774565b61181f611816600383016105d7565b60608801611774565b61183761182e600483016105fb565b60808801611782565b61184f611846600583016106f1565b60a08801611790565b61186761185e6006830161072d565b60c08801611793565b61187f61187660078301610751565b60e088016117a1565b61189861188e600883016105fb565b6101008801611782565b016105b3565b6101208401611766565b565b6118b3906117af565b90565b6118cc6118d1916118c561175b565b505f610579565b610c84565b6118dc5f82016105b3565b6118f66118f06118eb5f610ca6565b6101f6565b916101f6565b1461190757611904906118aa565b90565b61190f6100a2565b632589d98f60e11b815280611926600482016109e6565b0390fd5b90565b61194161193c6119469261192a565b6104c1565b6100da565b90565b634e487b7160e01b5f52601160045260245ffd5b61196c611972919392936100da565b926100da565b820180921161197d57565b611949565b9061198c9061056d565b5f5260205260405f2090565b90565b5f5260205f2090565b634e487b7160e01b5f52603260045260245ffd5b5490565b6119c5816119b8565b8210156119df576119d760019161199b565b910201905f90565b6119a4565b91906119fa6119f5611a029361056d565b610d56565b908354610d90565b9055565b9081549168010000000000000000831015611a365782611a2e916001611a34950181556119bc565b906119e4565b565b610112565b611a7f90611a70611a5f611a4f60016110db565b611a59600161192d565b9061195d565b611a6b60028490611982565b610d36565b611a7a6001611998565b611a06565b565b611a95611a90611a9a92610c87565b6104c1565b6100da565b90565b611aac611ab2919392936100da565b926100da565b8203918211611abd57565b611949565b611acb816110db565b821015611ae557611add6001916110e8565b910201905f90565b6119a4565b611afa906008611aff930261047d565b6105e4565b90565b90611b0d9154611aea565b90565b634e487b7160e01b5f52603160045260245ffd5b611b3691611b30610c46565b916119e4565b565b611b41816119b8565b8015611b62576001900390611b5f611b5983836119bc565b90611b24565b55565b611b10565b611b7b611b7660028390611982565b6105d7565b9081611b8f611b895f611a81565b916100da565b14611c6157611c025f91611bb0611c0794611baa600161192d565b90611a9d565b611bcd611bbd60016110db565b611bc7600161192d565b90611a9d565b9080611be1611bdb846100da565b916100da565b03611c09575b5050611bfb611bf66001611998565b611b38565b6002611982565b610ddb565b565b611c55611c4d611c26611c20611c5a956001611ac2565b90611b02565b92611c3d84611c3760018490611ac2565b906119e4565b611c47600161192d565b9061195d565b916002611982565b610d36565b5f80611be7565b505056fea264697066735822122002d56ef6d854da0d7295f977c7773be2d2c80d88b8e15cde7d383d366624098464736f6c63430008180033","linkReferences":{}},"methodIdentifiers":{"getRequest(bytes32)":"fb1e61ca","hasPrice(address,bytes32,uint256,bytes)":"bc58ccaa","pendingRequests()":"4a0aee29","requestPrice(bytes32,uint256,bytes,address,uint256)":"11df92f1","requests(bytes32)":"9d866985","settleAndGetPrice(bytes32,uint256,bytes)":"53b59239","settlePrice(bytes32,uint256,bytes,int256,bytes32)":"ae71bb51","teeRegistry()":"987a5584"},"id":44}