{"abi":[{"type":"constructor","inputs":[{"name":"teeRegistry_","type":"address","internalType":"address"}],"stateMutability":"nonpayable"},{"type":"function","name":"hasPrice","inputs":[{"name":"","type":"address","internalType":"address"},{"name":"identifier","type":"bytes32","internalType":"bytes32"},{"name":"timestamp","type":"uint256","internalType":"uint256"},{"name":"ancillaryData","type":"bytes","internalType":"bytes"}],"outputs":[{"name":"","type":"bool","internalType":"bool"}],"stateMutability":"view"},{"type":"function","name":"pendingRequests","inputs":[],"outputs":[{"name":"","type":"bytes32[]","internalType":"bytes32[]"}],"stateMutability":"view"},{"type":"function","name":"requestPrice","inputs":[{"name":"identifier","type":"bytes32","internalType":"bytes32"},{"name":"timestamp","type":"uint256","internalType":"uint256"},{"name":"ancillaryData","type":"bytes","internalType":"bytes"},{"name":"rewardToken","type":"address","internalType":"address"},{"name":"reward","type":"uint256","internalType":"uint256"}],"outputs":[{"name":"requestId","type":"bytes32","internalType":"bytes32"}],"stateMutability":"nonpayable"},{"type":"function","name":"requests","inputs":[{"name":"","type":"bytes32","internalType":"bytes32"}],"outputs":[{"name":"requester","type":"address","internalType":"address"},{"name":"rewardToken","type":"address","internalType":"address"},{"name":"reward","type":"uint256","internalType":"uint256"},{"name":"timestamp","type":"uint256","internalType":"uint256"},{"name":"settled","type":"bool","internalType":"bool"},{"name":"settledPrice","type":"int256","internalType":"int256"},{"name":"evidenceHash","type":"bytes32","internalType":"bytes32"}],"stateMutability":"view"},{"type":"function","name":"settleAndGetPrice","inputs":[{"name":"identifier","type":"bytes32","internalType":"bytes32"},{"name":"timestamp","type":"uint256","internalType":"uint256"},{"name":"ancillaryData","type":"bytes","internalType":"bytes"}],"outputs":[{"name":"","type":"int256","internalType":"int256"}],"stateMutability":"view"},{"type":"function","name":"settlePrice","inputs":[{"name":"identifier","type":"bytes32","internalType":"bytes32"},{"name":"timestamp","type":"uint256","internalType":"uint256"},{"name":"ancillaryData","type":"bytes","internalType":"bytes"},{"name":"price","type":"int256","internalType":"int256"},{"name":"evidenceHash","type":"bytes32","internalType":"bytes32"}],"outputs":[],"stateMutability":"nonpayable"},{"type":"function","name":"teeRegistry","inputs":[],"outputs":[{"name":"","type":"address","internalType":"contract ITEERegistry"}],"stateMutability":"view"},{"type":"event","name":"PriceRequested","inputs":[{"name":"requestId","type":"bytes32","indexed":true,"internalType":"bytes32"},{"name":"requester","type":"address","indexed":true,"internalType":"address"},{"name":"ancillaryData","type":"bytes","indexed":false,"internalType":"bytes"}],"anonymous":false},{"type":"event","name":"PriceSettled","inputs":[{"name":"requestId","type":"bytes32","indexed":true,"internalType":"bytes32"},{"name":"price","type":"int256","indexed":false,"internalType":"int256"},{"name":"resolver","type":"address","indexed":true,"internalType":"address"},{"name":"evidenceHash","type":"bytes32","indexed":false,"internalType":"bytes32"}],"anonymous":false},{"type":"error","name":"PriceNotAvailable","inputs":[]},{"type":"error","name":"RequestAlreadyExists","inputs":[]},{"type":"error","name":"RequestNotFound","inputs":[]},{"type":"error","name":"UnauthorizedResolver","inputs":[]}],"bytecode":{"object":"0x60806040523462000037576200001e6200001862000110565b620001d0565b620000286200003d565b611554620001ea823961155490f35b62000043565b60405190565b5f80fd5b601f801991011690565b634e487b7160e01b5f52604160045260245ffd5b90620000719062000047565b810190811060018060401b038211176200008a57604052565b62000051565b90620000a76200009f6200003d565b928362000065565b565b5f80fd5b60018060a01b031690565b620000c390620000ad565b90565b620000d181620000b8565b03620000d957565b5f80fd5b90505190620000ec82620000c6565b565b906020828203126200010a5762000107915f01620000dd565b90565b620000a9565b620001336200173e80380380620001278162000090565b928339810190620000ee565b90565b90565b620001526200014c6200015892620000ad565b62000136565b620000ad565b90565b620001669062000139565b90565b62000174906200015b565b90565b5f1b90565b906200018f60018060a01b039162000177565b9181191691161790565b620001a4906200015b565b90565b90565b90620001c4620001be620001cc9262000199565b620001a7565b82546200017c565b9055565b620001df620001e79162000169565b6003620001aa565b56fe60806040526004361015610013575b6108f2565b61001d5f3561008c565b806311df92f1146100875780634a0aee291461008257806353b592391461007d578063987a5584146100785780639d86698514610073578063ae71bb511461006e5763bc58ccaa0361000e576108b9565b61080e565b61073c565b61050a565b610437565b61038c565b6102a5565b60e01c90565b60405190565b5f80fd5b5f80fd5b5f80fd5b90565b6100b0816100a4565b036100b757565b5f80fd5b905035906100c8826100a7565b565b90565b6100d6816100ca565b036100dd57565b5f80fd5b905035906100ee826100cd565b565b5f80fd5b5f80fd5b601f801991011690565b634e487b7160e01b5f52604160045260245ffd5b90610120906100f8565b810190811067ffffffffffffffff82111761013a57604052565b610102565b9061015261014b610092565b9283610116565b565b67ffffffffffffffff81116101725761016e6020916100f8565b0190565b610102565b90825f939282370152565b9092919261019761019282610154565b61013f565b938185526020850190828401116101b3576101b192610177565b565b6100f4565b9080601f830112156101d6578160206101d393359101610182565b90565b6100f0565b60018060a01b031690565b6101ef906101db565b90565b6101fb816101e6565b0361020257565b5f80fd5b90503590610213826101f2565b565b919060a08382031261027e5761022d815f85016100bb565b9261023b82602083016100e1565b92604082013567ffffffffffffffff81116102795761025f846102769285016101b8565b9361026d8160608601610206565b936080016100e1565b90565b6100a0565b61009c565b61028c906100a4565b9052565b91906102a3905f60208501940190610283565b565b346102d9576102d56102c46102bb366004610215565b93929092610a7f565b6102cc610092565b91829182610290565b0390f35b610098565b5f9103126102e857565b61009c565b5190565b60209181520190565b60200190565b610309906100a4565b9052565b9061031a81602093610300565b0190565b60200190565b9061034161033b610334846102ed565b80936102f1565b926102fa565b905f5b8181106103515750505090565b90919261036a610364600192865161030d565b9461031e565b9101919091610344565b6103899160208201915f818403910152610324565b90565b346103bc5761039c3660046102de565b6103b86103a7610c7c565b6103af610092565b91829182610374565b0390f35b610098565b9160608383031261040d576103d8825f85016100bb565b926103e683602083016100e1565b92604082013567ffffffffffffffff81116104085761040592016101b8565b90565b6100a0565b61009c565b90565b61041e90610412565b9052565b9190610435905f60208501940190610415565b565b346104685761046461045361044d3660046103c1565b91610c96565b61045b610092565b91829182610422565b0390f35b610098565b1c90565b60018060a01b031690565b61048c906008610491930261046d565b610471565b90565b9061049f915461047c565b90565b6104ae60035f90610494565b90565b90565b6104c86104c36104cd926101db565b6104b1565b6101db565b90565b6104d9906104b4565b90565b6104e5906104d0565b90565b6104f1906104dc565b9052565b9190610508905f602085019401906104e8565b565b3461053a5761051a3660046102de565b6105366105256104a2565b61052d610092565b918291826104f5565b0390f35b610098565b9060208282031261055857610555915f016100bb565b90565b61009c565b610566906100a4565b90565b906105739061055d565b5f5260205260405f2090565b5f1c90565b60018060a01b031690565b61059b6105a09161057f565b610584565b90565b6105ad905461058f565b90565b90565b6105bf6105c49161057f565b6105b0565b90565b6105d190546105b3565b90565b60ff1690565b6105e66105eb9161057f565b6105d4565b90565b6105f890546105da565b90565b90565b61060a61060f9161057f565b6105fb565b90565b61061c90546105fe565b90565b90565b61062e6106339161057f565b61061f565b90565b6106409054610622565b90565b61064d905f610569565b6106585f82016105a3565b91610665600183016105a3565b91610672600282016105c7565b9161067f600383016105c7565b9161068c600482016105ee565b916106a5600661069e60058501610612565b9301610636565b90565b6106b1906101e6565b9052565b6106be906100ca565b9052565b151590565b6106d0906106c2565b9052565b949290979695939160e08601985f87016106ed916106a8565b602086016106fa916106a8565b60408501610707916106b5565b60608401610714916106b5565b60808301610721916106c7565b60a0820161072e91610415565b60c00161073a91610283565b565b346107735761076f61075761075236600461053f565b610643565b93610766979597939193610092565b978897886106d4565b0390f35b610098565b61078181610412565b0361078857565b5f80fd5b9050359061079982610778565b565b919060a083820312610804576107b3815f85016100bb565b926107c182602083016100e1565b92604082013567ffffffffffffffff81116107ff576107e5846107fc9285016101b8565b936107f3816060860161078c565b936080016100bb565b90565b6100a0565b61009c565b5f0190565b346108405761082a61082136600461079b565b93929092610ee9565b610832610092565b8061083c81610809565b0390f35b610098565b9060808282031261089f5761085c815f8401610206565b9261086a82602085016100bb565b9261087883604083016100e1565b92606082013567ffffffffffffffff811161089a5761089792016101b8565b90565b6100a0565b61009c565b91906108b7905f602085019401906106c7565b565b346108ed576108e96108d86108cf366004610845565b929190916110c8565b6108e0610092565b918291826108a4565b0390f35b610098565b5f80fd5b5f90565b5190565b60209181520190565b5f5b838110610919575050905f910152565b806020918301518185015201610909565b61094961095260209361095793610940816108fa565b938480936108fe565b95869101610907565b6100f8565b0190565b61097f61098c94929361097560608401955f850190610283565b60208301906106b5565b604081840391015261092a565b90565b60200190565b90565b90565b6109af6109aa6109b492610998565b6104b1565b6101db565b90565b6109c09061099b565b90565b5f1b90565b906109d960018060a01b03916109c3565b9181191691161790565b6109ec906104d0565b90565b90565b90610a07610a02610a0e926109e3565b6109ef565b82546109c8565b9055565b90610a1e5f19916109c3565b9181191691161790565b610a3c610a37610a41926100ca565b6104b1565b6100ca565b90565b90565b90610a5c610a57610a6392610a28565b610a44565b8254610a12565b9055565b610a7c9160208201915f81840391015261092a565b90565b949394929192610a8d6108f6565b50610aba8291610aab86610a9f610092565b9485936020850161095b565b60208201810382520382610116565b610acc610ac6826108fa565b9161098f565b2094610ae1610adc5f8890610569565b610995565b91610aed5f84016105a3565b610b07610b01610afc5f6109b7565b6101e6565b916101e6565b03610b9957610b37600392610b2e610b3e96610b25335f89016109f2565b600187016109f2565b60028501610a47565b9101610a47565b610b47836112ba565b8290339091610b94610b82610b7c7f2f3e50fc3a1678cc802f9d4ed9c892d40a4aa1c4515105522bbaf532d025fb3d9361055d565b936109e3565b93610b8b610092565b91829182610a67565b0390a3565b610ba1610092565b6317b5787760e11b815280610bb860048201610809565b0390fd5b606090565b5490565b60209181520190565b5f5260205f2090565b610be19054610622565b90565b60010190565b90610c07610c01610bfa84610bc1565b8093610bc5565b92610bce565b905f5b818110610c175750505090565b909192610c37610c31600192610c2c87610bd7565b61030d565b94610be4565b9101919091610c0a565b90610c4b91610bea565b90565b90610c6e610c6792610c5e610092565b93848092610c41565b0383610116565b565b610c7990610c4e565b90565b610c84610bbc565b50610c8f6001610c70565b90565b5f90565b91610cd3610cec92610cc4610cf195610cad610c92565b509193610cb8610092565b9485936020850161095b565b60208201810382520382610116565b610ce5610cdf826108fa565b9161098f565b205f610569565b610995565b610cfc5f82016105a3565b610d16610d10610d0b5f6109b7565b6101e6565b916101e6565b14610d6657610d30610d2a600483016105ee565b156106c2565b610d43576005610d409101610612565b90565b610d4b610092565b63579a480160e01b815280610d6260048201610809565b0390fd5b610d6e610092565b632589d98f60e11b815280610d8560048201610809565b0390fd5b610d95610d9a9161057f565b610471565b90565b610da79054610d89565b90565b60e01b90565b610db9816106c2565b03610dc057565b5f80fd5b90505190610dd182610db0565b565b90602082820312610dec57610de9915f01610dc4565b90565b61009c565b9190610e04905f602085019401906106a8565b565b610e0e610092565b3d5f823e3d90fd5b90610e2260ff916109c3565b9181191691161790565b610e35906106c2565b90565b90565b90610e50610e4b610e5792610e2c565b610e38565b8254610e16565b9055565b610e6f610e6a610e7492610412565b6104b1565b610412565b90565b90565b90610e8f610e8a610e9692610e5b565b610e77565b8254610a12565b9055565b610ea39061057f565b90565b90610ebb610eb6610ec29261055d565b610e9a565b8254610a12565b9055565b916020610ee7929493610ee060408201965f830190610415565b0190610283565b565b90610f0a610f19929594959193610efe610092565b9485936020850161095b565b60208201810382520382610116565b610f2b610f25826108fa565b9161098f565b20610f3f610f3a5f8390610569565b610995565b610f4a5f82016105a3565b610f64610f5e610f595f6109b7565b6101e6565b916101e6565b146110a157610faa6020610f80610f7b6003610d9d565b6104dc565b6327e1bdd890610f9f3392610f93610092565b95869485938493610daa565b835260048301610df1565b03915afa801561109c57610fc6915f9161106e575b50156106c2565b61104b57610ff390610fdc600160048301610e3b565b610fe98560058301610e7a565b6006849101610ea6565b610ffc81611420565b339161103161102b7f516f1ec73995c75deaeb8055eeea73f5ce9f1b73d9a4aba453247218a0ef31129361055d565b936109e3565b9361104661103d610092565b92839283610ec6565b0390a3565b611053610092565b63066fba9760e41b81528061106a60048201610809565b0390fd5b61108f915060203d8111611095575b6110878183610116565b810190610dd3565b5f610fbf565b503d61107d565b610e06565b6110a9610092565b632589d98f60e11b8152806110c060048201610809565b0390fd5b5f90565b509161110661111f926110f7611124956110e06110c4565b5091936110eb610092565b9485936020850161095b565b60208201810382520382610116565b611118611112826108fa565b9161098f565b205f610569565b610995565b61112f5f82016105a3565b61114961114361113e5f6109b7565b6101e6565b916101e6565b1461115d57600461115a91016105ee565b90565b611165610092565b632589d98f60e11b81528061117c60048201610809565b0390fd5b90565b61119761119261119c92611180565b6104b1565b6100ca565b90565b634e487b7160e01b5f52601160045260245ffd5b6111c26111c8919392936100ca565b926100ca565b82018092116111d357565b61119f565b906111e29061055d565b5f5260205260405f2090565b90565b5f5260205f2090565b634e487b7160e01b5f52603260045260245ffd5b5490565b61121b8161120e565b8210156112355761122d6001916111f1565b910201905f90565b6111fa565b1b90565b919060086112599102916112535f198461123a565b9261123a565b9181191691161790565b91906112796112746112819361055d565b610e9a565b90835461123e565b9055565b90815491680100000000000000008310156112b557826112ad9160016112b395018155611212565b90611263565b565b610102565b6112fe906112ef6112de6112ce6001610bc1565b6112d86001611183565b906111b3565b6112ea600284906111d8565b610a47565b6112f960016111ee565b611285565b565b61131461130f61131992610998565b6104b1565b6100ca565b90565b61132b611331919392936100ca565b926100ca565b820391821161133c57565b61119f565b61134a81610bc1565b8210156113645761135c600191610bce565b910201905f90565b6111fa565b61137990600861137e930261046d565b61061f565b90565b9061138c9154611369565b90565b634e487b7160e01b5f52603160045260245ffd5b6113b5916113af6108f6565b91611263565b565b6113c08161120e565b80156113e15760019003906113de6113d88383611212565b906113a3565b55565b61138f565b91906113fc6113f761140493610a28565b610a44565b90835461123e565b9055565b5f90565b61141e91611418611408565b916113e6565b565b61143461142f600283906111d8565b6105c7565b90816114486114425f611300565b916100ca565b1461151a576114bb5f916114696114c0946114636001611183565b9061131c565b6114866114766001610bc1565b6114806001611183565b9061131c565b908061149a611494846100ca565b916100ca565b036114c2575b50506114b46114af60016111ee565b6113b7565b60026111d8565b61140c565b565b61150e6115066114df6114d9611513956001611341565b90611381565b926114f6846114f060018490611341565b90611263565b6115006001611183565b906111b3565b9160026111d8565b610a47565b5f806114a0565b505056fea26469706673582212200d17e8ebb02564ecf408a4743cf25a9e86a2ad3565338ca9adcee15f1924bcaf64736f6c63430008180033","linkReferences":{}},"methodIdentifiers":{"hasPrice(address,bytes32,uint256,bytes)":"bc58ccaa","pendingRequests()":"4a0aee29","requestPrice(bytes32,uint256,bytes,address,uint256)":"11df92f1","requests(bytes32)":"9d866985","settleAndGetPrice(bytes32,uint256,bytes)":"53b59239","settlePrice(bytes32,uint256,bytes,int256,bytes32)":"ae71bb51","teeRegistry()":"987a5584"},"id":43}