{"abi":[{"type":"constructor","inputs":[{"name":"oracle","type":"address","internalType":"address"}],"stateMutability":"nonpayable"},{"type":"function","name":"initialize","inputs":[{"name":"ancillaryData","type":"bytes","internalType":"bytes"}],"outputs":[{"name":"questionId","type":"bytes32","internalType":"bytes32"}],"stateMutability":"nonpayable"},{"type":"function","name":"questions","inputs":[{"name":"","type":"bytes32","internalType":"bytes32"}],"outputs":[{"name":"ancillaryData","type":"bytes","internalType":"bytes"},{"name":"requestTimestamp","type":"uint256","internalType":"uint256"},{"name":"resolved","type":"bool","internalType":"bool"}],"stateMutability":"view"},{"type":"function","name":"ready","inputs":[{"name":"questionId","type":"bytes32","internalType":"bytes32"}],"outputs":[{"name":"","type":"bool","internalType":"bool"}],"stateMutability":"view"},{"type":"function","name":"resolve","inputs":[{"name":"questionId","type":"bytes32","internalType":"bytes32"}],"outputs":[{"name":"price","type":"int256","internalType":"int256"}],"stateMutability":"nonpayable"},{"type":"function","name":"teeOracle","inputs":[],"outputs":[{"name":"","type":"address","internalType":"contract TeeOracle"}],"stateMutability":"view"}],"bytecode":{"object":"0x60a06040523462000055576200001e620000186200012e565b62000195565b620000286200005b565b610f02620001a6823960805181818161053b01528181610a8801528181610c9a0152610e110152610f0290f35b62000061565b60405190565b5f80fd5b601f801991011690565b634e487b7160e01b5f52604160045260245ffd5b906200008f9062000065565b810190811060018060401b03821117620000a857604052565b6200006f565b90620000c5620000bd6200005b565b928362000083565b565b5f80fd5b60018060a01b031690565b620000e190620000cb565b90565b620000ef81620000d6565b03620000f757565b5f80fd5b905051906200010a82620000e4565b565b90602082820312620001285762000125915f01620000fb565b90565b620000c7565b62000151620010a8803803806200014581620000ae565b9283398101906200010c565b90565b90565b620001706200016a6200017692620000cb565b62000154565b620000cb565b90565b620001849062000157565b90565b620001929062000179565b90565b620001a09062000187565b60805256fe60806040526004361015610013575b6105f6565b61001d5f3561006c565b8063439fab91146100675780635c23bdf51461006257806395addb901461005d578063fcac49a2146100585763ff0fda610361000e576105c1565b6104f5565b6104a8565b6101c6565b61012a565b60e01c90565b60405190565b5f80fd5b5f80fd5b5f80fd5b5f80fd5b5f80fd5b5f80fd5b909182601f830112156100ca5781359167ffffffffffffffff83116100c55760200192600183028401116100c057565b61008c565b610088565b610084565b90602082820312610100575f82013567ffffffffffffffff81116100fb576100f79201610090565b9091565b610080565b61007c565b90565b61011190610105565b9052565b9190610128905f60208501940190610108565b565b3461015b576101576101466101403660046100cf565b90610a23565b61014e610072565b91829182610115565b0390f35b610078565b61016981610105565b0361017057565b5f80fd5b9050359061018182610160565b565b9060208282031261019c57610199915f01610174565b90565b61007c565b90565b6101ad906101a1565b9052565b91906101c4905f602085019401906101a4565b565b346101f6576101f26101e16101dc366004610183565b610c79565b6101e9610072565b918291826101b1565b0390f35b610078565b61020490610105565b90565b90610211906101fb565b5f5260205260405f2090565b634e487b7160e01b5f52602260045260245ffd5b9060016002830492168015610251575b602083101461024c57565b61021d565b91607f1691610241565b60209181520190565b5f5260205f2090565b905f929180549061028761028083610231565b809461025b565b916001811690815f146102de57506001146102a2575b505050565b6102af9192939450610264565b915f925b8184106102c657505001905f808061029d565b600181602092959395548486015201910192906102b3565b92949550505060ff19168252151560200201905f808061029d565b906103039161026d565b90565b601f801991011690565b634e487b7160e01b5f52604160045260245ffd5b9061032e90610306565b810190811067ffffffffffffffff82111761034857604052565b610310565b9061036d6103669261035d610072565b938480926102f9565b0383610324565b565b5f1c90565b90565b6103836103889161036f565b610374565b90565b6103959054610377565b90565b60ff1690565b6103aa6103af9161036f565b610398565b90565b6103bc905461039e565b90565b6103c9905f610207565b6103d45f820161034d565b916103ed60026103e66001850161038b565b93016103b2565b90565b5190565b60209181520190565b5f5b83811061040f575050905f910152565b8060209183015181850152016103ff565b61043f61044860209361044d93610436816103f0565b938480936103f4565b958691016103fd565b610306565b0190565b90565b61045d90610451565b9052565b151590565b61046f90610461565b9052565b60409061049f6104946104a69597969460608401908482035f860152610420565b966020830190610454565b0190610466565b565b346104db576104d76104c36104be366004610183565b6103bf565b6104ce939193610072565b93849384610473565b0390f35b610078565b91906104f3905f60208501940190610466565b565b346105255761052161051061050b366004610183565b610def565b610518610072565b918291826104e0565b0390f35b610078565b5f91031261053457565b61007c565b7f000000000000000000000000000000000000000000000000000000000000000090565b60018060a01b031690565b90565b61057f61057a6105849261055d565b610568565b61055d565b90565b6105909061056b565b90565b61059c90610587565b90565b6105a890610593565b9052565b91906105bf905f6020850194019061059f565b565b346105f1576105d136600461052a565b6105ed6105dc610539565b6105e4610072565b918291826105ac565b0390f35b610078565b5f80fd5b5f90565b5f80fd5b9061061561060e610072565b9283610324565b565b67ffffffffffffffff811161063557610631602091610306565b0190565b610310565b90825f939282370152565b9092919261065a61065582610617565b610602565b93818552602085019082840111610676576106749261063a565b565b6105fe565b610686913691610645565b90565b60200190565b90565b5090565b601f602091010490565b1b90565b919060086106bf9102916106b95f19846106a0565b926106a0565b9181191691161790565b6106dd6106d86106e292610451565b610568565b610451565b90565b90565b91906106fe6106f9610706936106c9565b6106e5565b9083546106a4565b9055565b5f90565b6107209161071a61070a565b916106e8565b565b5b81811061072e575050565b8061073b5f60019361070e565b01610723565b9190601f8111610751575b505050565b61075d61078293610264565b90602061076984610696565b8301931061078a575b61077b90610696565b0190610722565b5f808061074c565b915061077b81929050610772565b1c90565b906107ac905f1990600802610798565b191690565b816107bb9161079c565b906002021790565b916107ce9082610692565b9067ffffffffffffffff821161088d576107f2826107ec8554610231565b85610741565b5f90601f831160011461082557918091610814935f92610819575b50506107b1565b90555b565b90915001355f8061080d565b601f1983169161083485610264565b925f5b8181106108755750916002939185600196941061085b575b50505002019055610817565b61086b910135601f84169061079c565b90555f808061084f565b91936020600181928787013581550195019201610837565b610310565b9061089d92916107c3565b565b5f1b90565b906108b05f199161089f565b9181191691161790565b906108cf6108ca6108d6926106c9565b6106e5565b82546108a4565b9055565b7f9309974e6ae3a6f17ba5a0e7ffaaa9048ae786cf68926e4dfb293a348fda63af90565b90565b61091561091061091a926108fe565b610568565b61055d565b90565b61092690610901565b90565b60e01b90565b9050519061093c82610160565b565b9060208282031261095757610954915f0161092f565b90565b61007c565b91906109768161096f8161097b956103f4565b809561063a565b610306565b0190565b6109889061055d565b90565b6109949061097f565b9052565b6109ac6109a76109b1926108fe565b610568565b610451565b90565b6109bd90610998565b9052565b91610a0a91610a11969897956080956109f26109ff946109e860a08901955f8a0190610108565b6020880190610454565b858303604087015261095c565b96606083019061098b565b01906109b4565b565b610a1b610072565b3d5f823e3d90fd5b919091610a2e6105fa565b50602042610a3d83869061067b565b610a4f610a49826103f0565b91610689565b2094610a7f610a67610a625f8990610207565b61068f565b610a758684905f8401610892565b60018491016108ba565b610ae15f610aac7f0000000000000000000000000000000000000000000000000000000000000000610593565b92610aec6311df92f191610abe6108da565b969890610aca8561091d565b908592610ad5610072565b9b8c9a8b998a98610929565b8852600488016109c1565b03925af18015610b2a57610afe575b50565b610b1e9060203d8111610b23575b610b168183610324565b81019061093e565b610afb565b503d610b0c565b610a13565b5f90565b610b3c816101a1565b03610b4357565b5f80fd5b90505190610b5482610b33565b565b90602082820312610b6f57610b6c915f01610b47565b90565b61007c565b905f9291805490610b8e610b8783610231565b80946103f4565b916001811690815f14610be55750600114610ba9575b505050565b610bb69192939450610264565b915f925b818410610bcd57505001905f8080610ba4565b60018160209295939554848601520191019290610bba565b92949550505060ff19168252151560200201905f8080610ba4565b610c24610c31949293610c1a60608401955f850190610108565b6020830190610454565b6040818403910152610b74565b90565b90610c4060ff9161089f565b9181191691161790565b610c5390610461565b90565b90565b90610c6e610c69610c7592610c4a565b610c56565b8254610c34565b9055565b610c8f610c9491610c88610b2f565b505f610207565b61068f565b90610cbe7f0000000000000000000000000000000000000000000000000000000000000000610593565b60206353b5923991610cce6108da565b90610cf9610cde6001880161038b565b94610d045f8901610ced610072565b97889687958695610929565b855260048501610c00565b03915afa8015610d5657610d26915f91610d28575b5092600260019101610c59565b565b610d49915060203d8111610d4f575b610d418183610324565b810190610b56565b5f610d19565b503d610d37565b610a13565b5f90565b610d6890610587565b90565b610d7481610461565b03610d7b57565b5f80fd5b90505190610d8c82610d6b565b565b90602082820312610da757610da4915f01610d7f565b90565b61007c565b9092610ddf90610dd5610dec9694610dcb60808601975f87019061098b565b6020850190610108565b6040830190610454565b6060818403910152610b74565b90565b610e05610e0a91610dfe610d5b565b505f610207565b61068f565b6020610e357f0000000000000000000000000000000000000000000000000000000000000000610593565b63bc58ccaa90610e78610e4730610d5f565b92610e83610e536108da565b965f610e616001830161038b565b910190610e6c610072565b98899788968796610929565b865260048601610dac565b03915afa908115610ec7575f91610e99575b5090565b610eba915060203d8111610ec0575b610eb28183610324565b810190610d8e565b5f610e95565b503d610ea8565b610a1356fea26469706673582212201bd0d8f2cabfcd4c193db45ea6611d5a7970e42a7d8c360ca216ab4e6b31c78f64736f6c63430008180033","linkReferences":{}},"methodIdentifiers":{"initialize(bytes)":"439fab91","questions(bytes32)":"95addb90","ready(bytes32)":"fcac49a2","resolve(bytes32)":"5c23bdf5","teeOracle()":"ff0fda61"},"id":44}