{"abi":[{"type":"constructor","inputs":[{"name":"_identityRegistry","type":"address","internalType":"address"}],"stateMutability":"nonpayable"},{"type":"function","name":"MANUAL_VERIFIER","inputs":[],"outputs":[{"name":"","type":"address","internalType":"address"}],"stateMutability":"view"},{"type":"function","name":"addKey","inputs":[{"name":"agentId","type":"uint256","internalType":"uint256"},{"name":"teeArch","type":"bytes32","internalType":"bytes32"},{"name":"codeMeasurement","type":"bytes32","internalType":"bytes32"},{"name":"pubkey","type":"address","internalType":"address"},{"name":"codeConfigUri","type":"string","internalType":"string"},{"name":"verifier","type":"address","internalType":"address"},{"name":"proof","type":"bytes","internalType":"bytes"}],"outputs":[],"stateMutability":"nonpayable"},{"type":"function","name":"addVerifier","inputs":[{"name":"verifier","type":"address","internalType":"address"},{"name":"teeArch","type":"bytes32","internalType":"bytes32"}],"outputs":[],"stateMutability":"nonpayable"},{"type":"function","name":"forceAddKey","inputs":[{"name":"agentId","type":"uint256","internalType":"uint256"},{"name":"teeArch","type":"bytes32","internalType":"bytes32"},{"name":"codeMeasurement","type":"bytes32","internalType":"bytes32"},{"name":"pubkey","type":"address","internalType":"address"},{"name":"codeConfigUri","type":"string","internalType":"string"}],"outputs":[],"stateMutability":"nonpayable"},{"type":"function","name":"forceRemoveKey","inputs":[{"name":"pubkey","type":"address","internalType":"address"}],"outputs":[],"stateMutability":"nonpayable"},{"type":"function","name":"getIdentityRegistry","inputs":[],"outputs":[{"name":"","type":"address","internalType":"address"}],"stateMutability":"view"},{"type":"function","name":"getKey","inputs":[{"name":"agentId","type":"uint256","internalType":"uint256"},{"name":"pubkey","type":"address","internalType":"address"}],"outputs":[{"name":"","type":"tuple","internalType":"struct ITEERegistry.Key","components":[{"name":"teeArch","type":"bytes32","internalType":"bytes32"},{"name":"codeMeasurement","type":"bytes32","internalType":"bytes32"},{"name":"pubkey","type":"bytes","internalType":"bytes"},{"name":"codeConfigUri","type":"string","internalType":"string"},{"name":"verifier","type":"address","internalType":"address"}]}],"stateMutability":"view"},{"type":"function","name":"getKeyAtIndex","inputs":[{"name":"agentId","type":"uint256","internalType":"uint256"},{"name":"index","type":"uint256","internalType":"uint256"}],"outputs":[{"name":"","type":"address","internalType":"address"}],"stateMutability":"view"},{"type":"function","name":"getKeyCount","inputs":[{"name":"agentId","type":"uint256","internalType":"uint256"}],"outputs":[{"name":"","type":"uint256","internalType":"uint256"}],"stateMutability":"view"},{"type":"function","name":"hasKey","inputs":[{"name":"agentId","type":"uint256","internalType":"uint256"},{"name":"pubkey","type":"address","internalType":"address"}],"outputs":[{"name":"","type":"bool","internalType":"bool"}],"stateMutability":"view"},{"type":"function","name":"identityRegistry","inputs":[],"outputs":[{"name":"","type":"address","internalType":"address"}],"stateMutability":"view"},{"type":"function","name":"isRegisteredKey","inputs":[{"name":"pubkey","type":"address","internalType":"address"}],"outputs":[{"name":"","type":"bool","internalType":"bool"}],"stateMutability":"view"},{"type":"function","name":"isVerifier","inputs":[{"name":"verifier","type":"address","internalType":"address"}],"outputs":[{"name":"","type":"bool","internalType":"bool"}],"stateMutability":"view"},{"type":"function","name":"keyAgent","inputs":[{"name":"pubkey","type":"address","internalType":"address"}],"outputs":[{"name":"","type":"uint256","internalType":"uint256"}],"stateMutability":"view"},{"type":"function","name":"keys","inputs":[{"name":"agentId","type":"uint256","internalType":"uint256"},{"name":"pubkey","type":"address","internalType":"address"}],"outputs":[{"name":"","type":"tuple","internalType":"struct ITEERegistry.Key","components":[{"name":"teeArch","type":"bytes32","internalType":"bytes32"},{"name":"codeMeasurement","type":"bytes32","internalType":"bytes32"},{"name":"pubkey","type":"bytes","internalType":"bytes"},{"name":"codeConfigUri","type":"string","internalType":"string"},{"name":"verifier","type":"address","internalType":"address"}]}],"stateMutability":"view"},{"type":"function","name":"owner","inputs":[],"outputs":[{"name":"","type":"address","internalType":"address"}],"stateMutability":"view"},{"type":"function","name":"removeKey","inputs":[{"name":"agentId","type":"uint256","internalType":"uint256"},{"name":"pubkey","type":"address","internalType":"address"}],"outputs":[],"stateMutability":"nonpayable"},{"type":"function","name":"removeVerifier","inputs":[{"name":"verifier","type":"address","internalType":"address"}],"outputs":[],"stateMutability":"nonpayable"},{"type":"function","name":"renounceOwnership","inputs":[],"outputs":[],"stateMutability":"nonpayable"},{"type":"function","name":"transferOwnership","inputs":[{"name":"newOwner","type":"address","internalType":"address"}],"outputs":[],"stateMutability":"nonpayable"},{"type":"function","name":"verifiers","inputs":[{"name":"verifier","type":"address","internalType":"address"}],"outputs":[{"name":"","type":"tuple","internalType":"struct ITEERegistry.Verifier","components":[{"name":"teeArch","type":"bytes32","internalType":"bytes32"}]}],"stateMutability":"view"},{"type":"event","name":"KeyAdded","inputs":[{"name":"agentId","type":"uint256","indexed":true,"internalType":"uint256"},{"name":"teeArch","type":"bytes32","indexed":false,"internalType":"bytes32"},{"name":"codeMeasurement","type":"bytes32","indexed":false,"internalType":"bytes32"},{"name":"pubkey","type":"address","indexed":false,"internalType":"address"},{"name":"codeConfigUri","type":"string","indexed":false,"internalType":"string"},{"name":"verifier","type":"address","indexed":false,"internalType":"address"}],"anonymous":false},{"type":"event","name":"KeyRemoved","inputs":[{"name":"agentId","type":"uint256","indexed":true,"internalType":"uint256"},{"name":"pubkey","type":"address","indexed":false,"internalType":"address"}],"anonymous":false},{"type":"event","name":"OwnershipTransferred","inputs":[{"name":"previousOwner","type":"address","indexed":true,"internalType":"address"},{"name":"newOwner","type":"address","indexed":true,"internalType":"address"}],"anonymous":false},{"type":"event","name":"VerifierAdded","inputs":[{"name":"verifier","type":"address","indexed":true,"internalType":"address"},{"name":"vendor","type":"bytes32","indexed":false,"internalType":"bytes32"}],"anonymous":false},{"type":"event","name":"VerifierRemoved","inputs":[{"name":"verifier","type":"address","indexed":true,"internalType":"address"}],"anonymous":false},{"type":"error","name":"OwnableInvalidOwner","inputs":[{"name":"owner","type":"address","internalType":"address"}]},{"type":"error","name":"OwnableUnauthorizedAccount","inputs":[{"name":"account","type":"address","internalType":"address"}]}],"bytecode":{"object":"0x60806040523462000037576200001e6200001862000110565b620001c2565b620000286200003d565b61318f62000345823961318f90f35b62000043565b60405190565b5f80fd5b601f801991011690565b634e487b7160e01b5f52604160045260245ffd5b90620000719062000047565b810190811060018060401b038211176200008a57604052565b62000051565b90620000a76200009f6200003d565b928362000065565b565b5f80fd5b60018060a01b031690565b620000c390620000ad565b90565b620000d181620000b8565b03620000d957565b5f80fd5b90505190620000ec82620000c6565b565b906020828203126200010a5762000107915f01620000dd565b90565b620000a9565b62000133620034d480380380620001278162000090565b928339810190620000ee565b90565b5f1b90565b906200014e60018060a01b039162000136565b9181191691161790565b90565b620001746200016e6200017a92620000ad565b62000158565b620000ad565b90565b62000188906200015b565b90565b62000196906200017d565b90565b90565b90620001b6620001b0620001be926200018b565b62000199565b82546200013b565b9055565b620001da90620001d23362000235565b60016200019c565b565b90565b620001f8620001f2620001fe92620001dc565b62000158565b620000ad565b90565b6200020c90620001df565b90565b6200021a90620000b8565b9052565b919062000233905f602085019401906200020f565b565b80620002566200024f620002495f62000201565b620000b8565b91620000b8565b1462000269576200026790620002d9565b565b62000299620002785f62000201565b620002826200003d565b918291631e4fbdf760e01b8352600483016200021e565b0390fd5b5f1c90565b60018060a01b031690565b620002bc620002c2916200029d565b620002a2565b90565b620002d19054620002ad565b90565b5f0190565b620002e45f620002c5565b620002f0825f6200019c565b9062000328620003217f8be0079c531659141344cd1fd0a4f28419497f9722a3daafe3b4186f6b6457e0936200018b565b916200018b565b91620003336200003d565b806200033f81620002d4565b0390a356fe60a06040526004361015610013575b610b3f565b61001d5f3561016c565b806308cf10e914610167578063134e18f41461016257806327e1bdd81461015d5780632c8ce242146101585780632eab851614610153578063331052181461014e5780634c268153146101495780634d490def146101445780635388bec31461013f57806354e4a6021461013a578063574b7a15146101355780636c82448714610130578063715018a61461012b57806387c5f246146101265780638da5cb5b14610121578063ac6d8bbd1461011c578063bc4d861b14610117578063c29877fd14610112578063ca2dfd0a1461010d578063d7edaed6146101085763f2fde38b0361000e57610b0c565b610ad7565b610aa4565b610a71565b610a3c565b610a08565b6109a6565b610970565b61093d565b610908565b6108ab565b610835565b610801565b6107c7565b610721565b61057e565b610548565b6104de565b610329565b610288565b61020f565b60e01c90565b60405190565b5f80fd5b5f80fd5b5f91031261018a57565b61017c565b90565b60018060a01b031690565b90565b6101b46101af6101b99261018f565b61019d565b610192565b90565b6101c5906101a0565b90565b6101d361dead6101bc565b90565b6101de6101c8565b90565b6101ea90610192565b90565b6101f6906101e1565b9052565b919061020d905f602085019401906101ed565b565b3461023f5761021f366004610180565b61023b61022a6101d6565b610232610172565b918291826101fa565b0390f35b610178565b1c90565b60018060a01b031690565b6102639060086102689302610244565b610248565b90565b906102769154610253565b90565b61028560015f9061026b565b90565b346102b857610298366004610180565b6102b46102a3610279565b6102ab610172565b918291826101fa565b0390f35b610178565b5f80fd5b6102ca816101e1565b036102d157565b5f80fd5b905035906102e2826102c1565b565b906020828203126102fd576102fa915f016102d5565b90565b61017c565b151590565b61031090610302565b9052565b9190610327905f60208501940190610307565b565b346103595761035561034461033f3660046102e4565b610be2565b61034c610172565b91829182610314565b0390f35b610178565b90565b61036a8161035e565b0361037157565b5f80fd5b9050359061038282610361565b565b90565b61039081610384565b0361039757565b5f80fd5b905035906103a882610387565b565b5f80fd5b5f80fd5b5f80fd5b909182601f830112156103f05781359167ffffffffffffffff83116103eb5760200192600183028401116103e657565b6103b2565b6103ae565b6103aa565b909182601f8301121561042f5781359167ffffffffffffffff831161042a57602001926001830284011161042557565b6103b2565b6103ae565b6103aa565b909160e0828403126104d45761044c835f8401610375565b9261045a816020850161039b565b92610468826040830161039b565b9261047683606084016102d5565b92608083013567ffffffffffffffff81116104cf57816104979185016103b6565b9290936104a78360a083016102d5565b9260c082013567ffffffffffffffff81116104ca576104c692016103f5565b9091565b6102bd565b6102bd565b61017c565b5f0190565b34610516576105006104f1366004610434565b97969096959195949294611103565b610508610172565b80610512816104d9565b0390f35b610178565b91906040838203126105435780610537610540925f8601610375565b93602001610375565b90565b61017c565b346105795761057561056461055e36600461051b565b9061148e565b61056c610172565b918291826101fa565b0390f35b610178565b346105ae576105aa6105996105943660046102e4565b6114b6565b6105a1610172565b91829182610314565b0390f35b610178565b91906040838203126105db57806105cf6105d8925f8601610375565b936020016102d5565b90565b61017c565b6105e990610384565b9052565b5190565b60209181520190565b5f5b83811061060c575050905f910152565b8060209183015181850152016105fc565b601f801991011690565b61064661064f6020936106549361063d816105ed565b938480936105f1565b958691016105fa565b61061d565b0190565b5190565b60209181520190565b61068461068d6020936106929361067b81610658565b9384809361065c565b958691016105fa565b61061d565b0190565b61069f906101e1565b9052565b90610706906080806106fb6106e960a085016106c55f8901515f8801906105e0565b6106d7602089015160208801906105e0565b60408801518682036040880152610627565b60608701518582036060870152610665565b940151910190610696565b90565b61071e9160208201915f8184039101526106a3565b90565b346107525761074e61073d6107373660046105b3565b9061185e565b610745610172565b91829182610709565b0390f35b610178565b91909160a0818403126107c257610770835f8301610375565b9261077e816020840161039b565b9261078c826040850161039b565b9261079a83606083016102d5565b92608082013567ffffffffffffffff81116107bd576107b992016103b6565b9091565b6102bd565b61017c565b346107fc576107e66107da366004610757565b94939093929192611907565b6107ee610172565b806107f8816104d9565b0390f35b610178565b346108305761081a6108143660046105b3565b90611917565b610822610172565b8061082c816104d9565b0390f35b610178565b346108665761086261085161084b3660046105b3565b90611b2b565b610859610172565b91829182610314565b0390f35b610178565b9060208282031261088457610881915f01610375565b90565b61017c565b6108929061035e565b9052565b91906108a9905f60208501940190610889565b565b346108db576108d76108c66108c136600461086b565b611b57565b6108ce610172565b91829182610896565b0390f35b610178565b905f806108f19301519101906105e0565b565b9190610906905f602085019401906108e0565b565b346109385761093461092361091e3660046102e4565b611bdd565b61092b610172565b918291826108f3565b0390f35b610178565b3461096b5761094d366004610180565b610955611c21565b61095d610172565b80610967816104d9565b0390f35b610178565b346109a15761099d61098c6109863660046105b3565b90611c2b565b610994610172565b91829182610709565b0390f35b610178565b346109d6576109b6366004610180565b6109d26109c1611c4b565b6109c9610172565b918291826101fa565b0390f35b610178565b9190604083820312610a0357806109f7610a00925f86016102d5565b9360200161039b565b90565b61017c565b34610a3757610a21610a1b3660046109db565b90611e3e565b610a29610172565b80610a33816104d9565b0390f35b610178565b34610a6c57610a4c366004610180565b610a68610a57611e4a565b610a5f610172565b918291826101fa565b0390f35b610178565b34610a9f57610a89610a843660046102e4565b611f1c565b610a91610172565b80610a9b816104d9565b0390f35b610178565b34610ad257610abc610ab73660046102e4565b61203e565b610ac4610172565b80610ace816104d9565b0390f35b610178565b34610b0757610b03610af2610aed3660046102e4565b612049565b610afa610172565b91829182610896565b0390f35b610178565b34610b3a57610b24610b1f3660046102e4565b6120d4565b610b2c610172565b80610b36816104d9565b0390f35b610178565b5f80fd5b5f90565b610b5b610b56610b6092610192565b61019d565b610192565b90565b610b6c90610b47565b90565b610b7890610b63565b90565b90610b8590610b6f565b5f5260205260405f2090565b5f1c90565b610ba2610ba791610b91565b610248565b90565b610bb49054610b96565b90565b90565b610bce610bc9610bd392610bb7565b61019d565b610192565b90565b610bdf90610bba565b90565b6004610bfa610c0092610bf3610b43565b5082610b7b565b01610baa565b610c1a610c14610c0f5f610bd6565b6101e1565b916101e1565b141590565b60209181520190565b5f7f496e76616c6964207075626b6579000000000000000000000000000000000000910152565b610c5c600e602092610c1f565b610c6581610c28565b0190565b610c7e9060208101905f818303910152610c4f565b90565b15610c8857565b610c90610172565b62461bcd60e51b815280610ca660048201610c69565b0390fd5b610cb390610b47565b90565b610cbf90610caa565b90565b610ccb90610b63565b90565b634e487b7160e01b5f52604160045260245ffd5b90610cec9061061d565b810190811067ffffffffffffffff821117610d0657604052565b610cce565b60e01b90565b90505190610d1e826102c1565b565b90602082820312610d3957610d36915f01610d11565b90565b61017c565b610d46610172565b3d5f823e3d90fd5b610d5781610302565b03610d5e57565b5f80fd5b90505190610d6f82610d4e565b565b90602082820312610d8a57610d87915f01610d62565b90565b61017c565b916020610db0929493610da960408201965f8301906101ed565b01906101ed565b565b5f7f4e6f7420617574686f72697a6564000000000000000000000000000000000000910152565b610de6600e602092610c1f565b610def81610db2565b0190565b610e089060208101905f818303910152610dd9565b90565b15610e1257565b610e1a610172565b62461bcd60e51b815280610e3060048201610df3565b0390fd5b90610e3e90610b6f565b5f5260205260405f2090565b90565b610e59610e5e91610b91565b610e4a565b90565b610e6b9054610e4d565b90565b5f1b90565b610e87610e82610e8c92610bb7565b610e6e565b610384565b90565b5f7f5665726966696572206e6f742077686974656c69737465640000000000000000910152565b610ec36018602092610c1f565b610ecc81610e8f565b0190565b610ee59060208101905f818303910152610eb6565b90565b15610eef57565b610ef7610172565b62461bcd60e51b815280610f0d60048201610ed0565b0390fd5b610f1a90610b47565b90565b610f2690610f11565b90565b610f3290610b63565b90565b610f3e90610384565b9052565b90825f939282370152565b9190610f6781610f6081610f6c95610c1f565b8095610f42565b61061d565b0190565b60209181520190565b9190610f9381610f8c81610f9895610f70565b8095610f42565b61061d565b0190565b969490610ff094610fd98995610fcf610ffe9c9a96610fc5610fe3965f60c08c019b01906101ed565b60208d0190610889565b60408b0190610f35565b60608901906101ed565b8683036080880152610f4d565b9260a0818503910152610f79565b90565b5f7f496e76616c69642070726f6f6600000000000000000000000000000000000000910152565b611035600d602092610c1f565b61103e81611001565b0190565b6110579060208101905f818303910152611028565b90565b1561106157565b611069610172565b62461bcd60e51b81528061107f60048201611042565b0390fd5b5f80fd5b9061109a611093610172565b9283610ce2565b565b67ffffffffffffffff81116110ba576110b660209161061d565b0190565b610cce565b909291926110d46110cf8261109c565b611087565b938185526020850190828401116110f0576110ee92610f42565b565b611083565b6111009136916110bf565b90565b9796909591929394966111318561112a61112461111f5f610bd6565b6101e1565b916101e1565b1415610c81565b61117a602061115061114b6111466001610baa565b610cb6565b610cc2565b636352211e9061116f8d92611163610172565b95869485938493610d0b565b835260048301610896565b03915afa908115611450575f91611422575b50336111a061119a836101e1565b916101e1565b1490811561138a575b5080156112d3575b6020926111c061124892610e0b565b6111fa6111d95f6111d360028990610e34565b01610e61565b6111f36111ed6111e85f610e73565b610384565b91610384565b1415610ee8565b61120b61120686610f1d565b610f29565b926112166001610baa565b918b8d898b918d93949596611229610172565b60805261123963ef2c0c47610d0b565b60805152600460805101610f9c565b90608051916080519003905f608051915af19081156112ce5761128b97611285925f9061128d575b6112799061105a565b959293949690966110f5565b9361260f565b565b5060203d81116112be575b6112b7816112ab61127993608051610ce2565b60805101608051610d71565b9050611270565b506112796112b73d915050611298565b610d3e565b5061131e9160206112f46112ef6112ea6001610baa565b610cb6565b610cc2565b63081812fc906113138d92611307610172565b97889485938493610d0b565b835260048301610896565b03915afa908115611385576111c0611248926020955f91611358575b5061134d611347336101e1565b916101e1565b1492505092506111b1565b6113789150863d811161137e575b6113708183610ce2565b810190610d20565b5f61133a565b503d611366565b610d3e565b905060206113a86113a361139e6001610baa565b610cb6565b610cc2565b63e985e9c592906113cb33946113d66113bf610172565b96879586948594610d0b565b845260048401610d8f565b03915afa90811561141d575f916113ef575b505f6111a9565b611410915060203d8111611416575b6114088183610ce2565b810190610d71565b5f6113e8565b503d6113fe565b610d3e565b611443915060203d8111611449575b61143b8183610ce2565b810190610d20565b5f61118c565b503d611431565b610d3e565b5f90565b61146d6114686114729261035e565b61019d565b61035e565b90565b9061147f90611459565b5f5260205260405f2090565b90565b906114ae6114a96114b3936114a1611455565b506003611475565b61148b565b612783565b90565b5f6114ce6114d4926114c6610b43565b506002610e34565b01610e61565b6114ee6114e86114e35f610e73565b610384565b91610384565b141590565b6114fd60a0611087565b90565b5f90565b606090565b606090565b5f90565b61151a6114f3565b906020808080808661152a611500565b815201611535611500565b815201611540611504565b81520161154b611509565b81520161155661150e565b81525050565b611564611512565b90565b5f7f4b6579206e6f7420666f756e6400000000000000000000000000000000000000910152565b61159b600d602092610c1f565b6115a481611567565b0190565b6115bd9060208101905f81830391015261158e565b90565b156115c757565b6115cf610172565b62461bcd60e51b8152806115e5600482016115a8565b0390fd5b906115f390610384565b9052565b634e487b7160e01b5f52602260045260245ffd5b906001600283049216801561162b575b602083101461162657565b6115f7565b91607f169161161b565b5f5260205f2090565b905f92918054906116586116518361160b565b80946105f1565b916001811690815f146116af5750600114611673575b505050565b6116809192939450611635565b915f925b81841061169757505001905f808061166e565b60018160209295939554848601520191019290611684565b92949550505060ff19168252151560200201905f808061166e565b906116d49161163e565b90565b906116f76116f0926116e7610172565b938480926116ca565b0383610ce2565b565b52565b5f5260205f2090565b905f929180549061171f6117188361160b565b809461065c565b916001811690815f14611776575060011461173a575b505050565b61174791929394506116fc565b915f925b81841061175e57505001905f8080611735565b6001816020929593955484860152019101929061174b565b92949550505060ff19168252151560200201905f8080611735565b9061179b91611705565b90565b906117be6117b7926117ae610172565b93848092611791565b0383610ce2565b565b52565b906117cd906101e1565b9052565b9061185061184760046117e26114f3565b946117f96117f15f8301610e61565b5f88016115e9565b61181161180860018301610e61565b602088016115e9565b611829611820600283016116d7565b604088016116f9565b6118416118386003830161179e565b606088016117c0565b01610baa565b608084016117c3565b565b61185b906117d1565b90565b61189f9161189361188e61188761188261189a9561187a61155c565b506003611475565b61148b565b83906127ff565b6115c0565b6004610b7b565b611852565b90565b906118b895949392916118b3612839565b6118ba565b565b916118ff6119059695939492946118ec846118e56118df6118da5f610bd6565b6101e1565b916101e1565b1415610c81565b94919293956118f96101c8565b966110f5565b9361260f565b565b9061191595949392916118a2565b565b90611961602061193761193261192d6001610baa565b610cb6565b610cc2565b636352211e90611956869261194a610172565b95869485938493610d0b565b835260048301610896565b03915afa908115611b26575f91611af8575b5033611987611981836101e1565b916101e1565b14908115611a60575b509182156119ac575b6119a56119aa93610e0b565b612c3c565b565b6119f7925060206119cd6119c86119c36001610baa565b610cb6565b610cc2565b63081812fc906119ec84926119e0610172565b97889485938493610d0b565b835260048301610896565b03915afa928315611a5b576119aa936119a5915f91611a2d575b50611a24611a1e336101e1565b916101e1565b14935050611999565b611a4e915060203d8111611a54575b611a468183610ce2565b810190610d20565b5f611a11565b503d611a3c565b610d3e565b90506020611a7e611a79611a746001610baa565b610cb6565b610cc2565b63e985e9c59290611aa13394611aac611a95610172565b96879586948594610d0b565b845260048401610d8f565b03915afa908115611af3575f91611ac5575b505f611990565b611ae6915060203d8111611aec575b611ade8183610ce2565b810190610d71565b5f611abe565b503d611ad4565b610d3e565b611b19915060203d8111611b1f575b611b118183610ce2565b810190610d20565b5f611973565b503d611b07565b610d3e565b90611b4b611b46611b5093611b3e610b43565b506003611475565b61148b565b6127ff565b90565b5f90565b611b76611b71611b7b92611b69611b53565b506003611475565b61148b565b612cef565b90565b611b886020611087565b90565b611b93611b7e565b90602082611b9f611500565b81525050565b611bad611b8b565b90565b90611bcf611bc75f611bc0611b7e565b9401610e61565b5f84016115e9565b565b611bda90611bb0565b90565b611bf4611bf991611bec611ba5565b506002610e34565b611bd1565b90565b611c04612839565b611c0c611c0e565b565b611c1f611c1a5f610bd6565b612d0e565b565b611c29611bfc565b565b50611c43611c4891611c3b61155c565b506004610b7b565b611852565b90565b611c53611455565b50611c5d5f610baa565b90565b90611c7291611c6d612839565b611dac565b565b5f7f496e76616c696420766572696669657220616464726573730000000000000000910152565b611ca86018602092610c1f565b611cb181611c74565b0190565b611cca9060208101905f818303910152611c9b565b90565b15611cd457565b611cdc610172565b62461bcd60e51b815280611cf260048201611cb5565b0390fd5b611d006020611087565b90565b634e487b7160e01b5f525f60045260245ffd5b611d209051610384565b90565b90611d2f5f1991610e6e565b9181191691161790565b611d4290610384565b90565b611d4e90610b91565b90565b90611d66611d61611d6d92611d39565b611d45565b8254611d23565b9055565b90611d835f80611d8994019201611d16565b90611d51565b565b90611d9591611d71565b565b9190611daa905f60208501940190610f35565b565b611dd181611dca611dc4611dbf5f610bd6565b6101e1565b916101e1565b1415611ccd565b611dfa82611de9611de0611cf6565b915f83016115e9565b611df560028490610e34565b611d8b565b611e39611e277fdf395e5bd7458959ba8998503d4a8766e743681644b5d1b4866b0a566c213c7c92610b6f565b92611e30610172565b91829182611d97565b0390a2565b90611e4891611c60565b565b611e52611455565b50611e5d6001610baa565b90565b611e7190611e6c612839565b611eba565b565b611e7d90516101e1565b90565b90611e8a90610b6f565b5f5260205260405f2090565b90565b611ea5611eaa91610b91565b611e96565b90565b611eb79054611e99565b90565b611f1a90611f01611ee06080611eda611ed560048690610b7b565b611852565b01611e73565b611efa611ef4611eef5f610bd6565b6101e1565b916101e1565b14156115c0565b611f15611f1060058390611e80565b611ead565b612c3c565b565b611f2590611e60565b565b611f3890611f33612839565b611fc2565b565b1b90565b91906008611f59910291611f535f1984611f3a565b92611f3a565b9181191691161790565b9190611f79611f74611f8193611d39565b611d45565b908354611f3e565b9055565b5f90565b611f9b91611f95611f85565b91611f63565b565b5f80611fa99201611f89565b565b905f03611fbd57611fbb90611f9d565b565b611d03565b611fe781611fe0611fda611fd55f610bd6565b6101e1565b916101e1565b1415611ccd565b611ffc5f611ff760028490610e34565b611fab565b6120267f44a3cd4eb5cc5748f6169df057b1cb2ae4c383e87cd94663c430e095d4cba42491610b6f565b9061202f610172565b80612039816104d9565b0390a2565b61204790611f27565b565b61206061206591612058611b53565b506005611e80565b611ead565b90565b61207990612074612839565b61207b565b565b8061209661209061208b5f610bd6565b6101e1565b916101e1565b146120a6576120a490612d0e565b565b6120d06120b25f610bd6565b6120ba610172565b918291631e4fbdf760e01b8352600483016101fa565b0390fd5b6120dd90612068565b565b5f7f4b657920616c7265616479206578697374730000000000000000000000000000910152565b6121136012602092610c1f565b61211c816120df565b0190565b6121359060208101905f818303910152612106565b90565b1561213f57565b612147610172565b62461bcd60e51b81528061215d60048201612120565b0390fd5b60601b90565b61217090612161565b90565b61217c90612167565b90565b61218b612190916101e1565b612173565b9052565b6121a08160149361217f565b0190565b6121ae60a0611087565b90565b5190565b601f602091010490565b90565b91906121d86121d36121e093611459565b6121bf565b908354611f3e565b9055565b6121f6916121f0611b53565b916121c2565b565b5b818110612204575050565b806122115f6001936121e4565b016121f9565b9190601f8111612227575b505050565b61223361225893611635565b90602061223f846121b5565b83019310612260575b612251906121b5565b01906121f8565b5f8080612222565b915061225181929050612248565b9061227e905f1990600802610244565b191690565b8161228d9161226e565b906002021790565b9061229f816105ed565b9067ffffffffffffffff821161235f576122c3826122bd855461160b565b85612217565b602090601f83116001146122f7579180916122e6935f926122eb575b5050612283565b90555b565b90915001515f806122df565b601f1983169161230685611635565b925f5b8181106123475750916002939185600196941061232d575b505050020190556122e9565b61233d910151601f84169061226e565b90555f8080612321565b91936020600181928787015181550195019201612309565b610cce565b9061236e91612295565b565b5190565b9190601f8111612384575b505050565b6123906123b5936116fc565b90602061239c846121b5565b830193106123bd575b6123ae906121b5565b01906121f8565b5f808061237f565b91506123ae819290506123a5565b906123d581610658565b9067ffffffffffffffff8211612495576123f9826123f3855461160b565b85612374565b602090601f831160011461242d5791809161241c935f92612421575b5050612283565b90555b565b90915001515f80612415565b601f1983169161243c856116fc565b925f5b81811061247d57509160029391856001969410612463575b5050500201905561241f565b612473910151601f84169061226e565b90555f8080612457565b9193602060018192878701518155019501920161243f565b610cce565b906124a4916123cb565b565b906124b760018060a01b0391610e6e565b9181191691161790565b90565b906124d96124d46124e092610b6f565b6124c1565b82546124a6565b9055565b9061255a60806004612560946125075f82016125015f8801611d16565b90611d51565b6125206001820161251a60208801611d16565b90611d51565b61253960028201612533604088016121b1565b90612364565b6125526003820161254c60608801612370565b9061249a565b019201611e73565b906124c4565b565b9061256c916124e4565b565b9061258361257e61258a92611459565b6121bf565b8254611d23565b9055565b6125ad6125b66020936125bb936125a481610658565b93848093610c1f565b958691016105fa565b61061d565b0190565b61260d946125f8829897956125ee6080966125e4612605975f60a08901980190610f35565b60208c0190610f35565b60408a01906101ed565b878203606089015261258e565b9401906101ed565b565b9461274b91949561264f61262f6004612629818990610b7b565b01610baa565b61264961264361263e5f610bd6565b6101e1565b916101e1565b14612138565b6126d7866126c6866126bd6126756126848b612669610172565b92839160208301612194565b60208201810382520382610ce2565b6126b48d916126ab8a956126a26126996121a4565b995f8b016115e9565b602089016115e9565b604087016116f9565b606085016117c0565b608083016117c3565b6126d260048890610b7b565b612562565b6126ec816126e760058890611e80565b61256e565b61270a6127036126fe60038490611475565b61148b565b8690612d6d565b50949293956127397f593a6a02812bc4c9fb9c503925b4c4e813aaaa242ac67aa75b6d923ecc67afac96611459565b96612742610172565b958695866125bf565b0390a2565b90565b61275f61276491610b91565b611459565b90565b61277b6127766127809261035e565b61019d565b610192565b90565b6127ae6127a96127b8936127a45f6127b39561279d611455565b5001612750565b612e16565b612753565b612767565b610b63565b90565b6127c490610b47565b90565b6127db6127d66127e092610192565b61019d565b61035e565b90565b6127f76127f26127fc9261035e565b610e6e565b610384565b90565b9061283161282b6128266128215f61283696612819610b43565b5001946127bb565b6127c7565b6127e3565b91612750565b612e69565b90565b612841611c4b565b61285a61285461284f612e9e565b6101e1565b916101e1565b0361286157565b61288a61286c612e9e565b612874610172565b91829163118cdaa760e01b8352600483016101fa565b0390fd5b906128a1905f1990602003600802610244565b8154169055565b905f916128bf6128b782611635565b928354612283565b905555565b919290602082105f1461291d57601f84116001146128ed576128e7929350612283565b90555b5b565b509061291361291893600161290a61290485611635565b926121b5565b820191016121f8565b6128a8565b6128ea565b50612954829361292e600194611635565b61294d61293a856121b5565b820192601f86168061295f575b506121b5565b01906121f8565b6002021790556128eb565b61296b9088860361288e565b5f612947565b9290916801000000000000000082116129d1576020115f146129c257602081105f146129a6576129a091612283565b90555b5b565b60019160ff19166129b684611635565b556002020190556129a3565b600191506002020190556129a4565b610cce565b9081546129e28161160b565b90818311612a0b575b8183106129f9575b50505050565b612a02936128c4565b5f8080806129f3565b612a1783838387612971565b6129eb565b634e487b7160e01b5f52601160045260245ffd5b5f612a3a916129d6565b565b905f03612a4e57612a4c90612a30565b565b611d03565b905f91612a6a612a62826116fc565b928354612283565b905555565b919290602082105f14612ac857601f8411600114612a9857612a92929350612283565b90555b5b565b5090612abe612ac3936001612ab5612aaf856116fc565b926121b5565b820191016121f8565b612a53565b612a95565b50612aff8293612ad96001946116fc565b612af8612ae5856121b5565b820192601f861680612b0a575b506121b5565b01906121f8565b600202179055612a96565b612b169088860361288e565b5f612af2565b929091680100000000000000008211612b7c576020115f14612b6d57602081105f14612b5157612b4b91612283565b90555b5b565b60019160ff1916612b61846116fc565b55600202019055612b4e565b60019150600202019055612b4f565b610cce565b908154612b8d8161160b565b90818311612bb6575b818310612ba4575b50505050565b612bad93612a6f565b5f808080612b9e565b612bc283838387612b1c565b612b96565b5f612bd191612b81565b565b905f03612be557612be390612bc7565b565b611d03565b60045f91612bfa83808301611f89565b612c078360018301611f89565b612c148360028301612a3c565b612c218360038301612bd3565b0155565b905f03612c3757612c3590612bea565b565b611d03565b612c62612c5d612c56612c5160038590611475565b61148b565b84906127ff565b6115c0565b612c80612c79612c7460038490611475565b61148b565b8390612eab565b50612c965f612c9160048590610b7b565b612c25565b612cab5f612ca660058590611e80565b6121e4565b612cea612cd87fb74d0a55c6ebdc331a14573390016e74219664addb6d159539245a2c4a54e9ab92611459565b92612ce1610172565b918291826101fa565b0390a2565b612d065f612d0b92612cff611b53565b5001612750565b612ee5565b90565b612d175f610baa565b612d21825f6124c4565b90612d55612d4f7f8be0079c531659141344cd1fd0a4f28419497f9722a3daafe3b4186f6b6457e093610b6f565b91610b6f565b91612d5e610172565b80612d68816104d9565b0390a3565b90612d9f612d99612d94612d8f5f612da496612d87610b43565b5001946127bb565b6127c7565b6127e3565b91612750565b612f69565b90565b634e487b7160e01b5f52603260045260245ffd5b5490565b5f5260205f2090565b612dd181612dbb565b821015612deb57612de3600191612dbf565b910201905f90565b612da7565b612e00906008612e059302610244565b610e4a565b90565b90612e139154612df0565b90565b612e34915f612e2e92612e27611f85565b5001612dc8565b90612e08565b90565b90612e4190611d39565b5f5260205260405f2090565b612e61612e5c612e6692610bb7565b61019d565b61035e565b90565b612e87916001612e8292612e7b610b43565b5001612e37565b611ead565b612e99612e935f612e4d565b9161035e565b141590565b612ea6611455565b503390565b90612edd612ed7612ed2612ecd5f612ee296612ec5610b43565b5001946127bb565b6127c7565b6127e3565b91612750565b613053565b90565b5f612ef991612ef2611b53565b5001612dbb565b90565b90565b5f5260205f2090565b5490565b612f1581612f08565b821015612f2f57612f27600191612eff565b910201905f90565b612da7565b9081549168010000000000000000831015612f645782612f5c916001612f6295018155612f0c565b90611f63565b565b610cce565b612f71610b43565b50612f86612f80828490612e69565b15610302565b5f14612fc657612fbc612fc192612fa8612fa15f8501612efc565b8290612f34565b6001612fb55f8501612dbb565b9301612e37565b61256e565b600190565b50505f90565b90565b612fe3612fde612fe892612fcc565b61019d565b61035e565b90565b612ffa6130009193929361035e565b9261035e565b820391821161300b57565b612a1c565b634e487b7160e01b5f52603160045260245ffd5b61302d81612f08565b801561304e57600190039061304b6130458383612f0c565b90611f89565b55565b613010565b61305b610b43565b5061307261306d600183018490612e37565b611ead565b90816130866130805f612e4d565b9161035e565b14155f14613152576131049260016130ff92846130ad5f966130a785612fcf565b90612feb565b6130ca6130bb888501612dbb565b6130c486612fcf565b90612feb565b816130dd6130d78361035e565b9161035e565b03613109575b5050506130f96130f4868301612efc565b613024565b01612e37565b6121e4565b600190565b61314a9261313c613128613122613145948c8901612dc8565b90612e08565b9361313685918c8901612dc8565b90611f63565b91858501612e37565b61256e565b5f80806130e3565b5050505f9056fea26469706673582212208d76492b62144f9c247529af99a68e3cb271cd5661304ebe5f32b59e7b44bc3f64736f6c63430008180033","linkReferences":{}},"methodIdentifiers":{"MANUAL_VERIFIER()":"08cf10e9","addKey(uint256,bytes32,bytes32,address,string,address,bytes)":"2c8ce242","addVerifier(address,bytes32)":"ac6d8bbd","forceAddKey(uint256,bytes32,bytes32,address,string)":"4d490def","forceRemoveKey(address)":"c29877fd","getIdentityRegistry()":"bc4d861b","getKey(uint256,address)":"4c268153","getKeyAtIndex(uint256,uint256)":"2eab8516","getKeyCount(uint256)":"574b7a15","hasKey(uint256,address)":"54e4a602","identityRegistry()":"134e18f4","isRegisteredKey(address)":"27e1bdd8","isVerifier(address)":"33105218","keyAgent(address)":"d7edaed6","keys(uint256,address)":"87c5f246","owner()":"8da5cb5b","removeKey(uint256,address)":"5388bec3","removeVerifier(address)":"ca2dfd0a","renounceOwnership()":"715018a6","transferOwnership(address)":"f2fde38b","verifiers(address)":"6c824487"},"id":52}